{
  "transactions": [
    {
      "hash": "0x4754e0d445fa621fd6c5d60919dd7b4192ac4108d41cf4b80d6f15f79e30184c",
      "transactionType": "CREATE",
      "contractName": "IdentityRegistry",
      "contractAddress": "0x9bb17957fc8a62b6c139eccc8df56540cdb5b200",
      "function": null,
      "arguments": null,
      "transaction": {
        "from": "0x9e3f8146d3fa4b37033e73bfc95728f5b65b2473",
        "to": null,
        "gas": "0x2a3c54",
        "value": "0x0",
        "input": "0x60a080604052346100c257306080525f5160206125d05f395f51905f525460ff8160401c166100b3576002600160401b03196001600160401b03821601610060575b60405161250990816100c7823960805181818161150701526115e30152f35b6001600160401b0319166001600160401b039081175f5160206125d05f395f51905f525581527fc7f505b2f371ae2175ee4913f4499e1f2633a7b5936321eed1cdaeb6115181d290602090a15f80610041565b63f92ee8a960e01b5f5260045ffd5b5f80fdfe6080806040526004361015610012575f80fd5b5f3560e01c90816301ffc9a714611d4f575080630cd22bf714611c00578063144fa6d714611b9a5780631eb5bba514611b72578063248a9ca314611b3357806326d941ae14611acb5780632f2ff15d14611a8157806336568abe14611a3d5780633b239a7f1461197b5780633c8d1905146119535780633f4ba83a146118d5578063454a03e01461175f5780634f1ef2861461155b57806352d1902d146114f55780635bb7dc8a146114bd5780635c975abb1461148f5780635dbe47e81461144e578063653dc9f1146111c2578063670af6a91461115a5780637bad2105146111165780637c5cf7241461107b5780637e42683b1461103f57806382492c3b1461101757806382aefa2414610fdd5780638456cb5914610f6c5780638e098ca114610e9b57806391d1485414610e465780639f63ea9814610d26578063a217fddf14610d0c578063a8d29d1d14610b3a578063ad3cb1cc14610ac1578063b9209e3314610a94578063b93d28eb146108fb578063c28fb27814610847578063c4d66de8146106df578063d547741f1461068e578063d57fe1b2146105e1578063d589cc981461050b578063d7e64c00146104ee578063d9dd24c514610426578063de1399211461032a578063e744d789146102b3578063ef2ed1a414610276578063f0eb5e54146102375763fc0c546a1461020b575f80fd5b34610233575f366003190112610233576008546040516001600160a01b039091168152602090f35b5f80fd5b34610233576020366003190112610233576001600160a01b03610258611da2565b165f525f602052602060018060a01b0360405f205416604051908152f35b34610233576020366003190112610233576001600160a01b03610297611da2565b165f52600a602052602060ff60405f2054166040519015158152f35b34610233576020366003190112610233576102cc611da2565b6102d4612030565b6001600160a01b0316801561031b57600780546001600160a01b031916821790557f1b98cb79e6f73020175fe87333f1b91ad6a881519c0afe30340c2599b2b4bde05f80a2005b630f2f0f2160e41b5f5260045ffd5b346102335761033836611e50565b9091610342612030565b6001600160a01b03165f818152600a602052604090205490919060ff161561041357801561040457815f52600b60205260405f2067ffffffffffffffff82116103f05761038f8282611f0a565b83905f5260205f20905f5b8381106103dc575050506103d77f35ed3e385209848bf76c6b7730b7d4f372be15fab70ccd650f6941bda4d1447a91604051918291339683611f4a565b0390a3005b60019060208335930192818501550161039a565b634e487b7160e01b5f52604160045260245ffd5b638fecd26960e01b5f5260045ffd5b506373f18e8960e11b5f5260045260245ffd5b34610233575f366003190112610233576040518060206009549283815201809260095f527f6e1540171b6c0c960b71a7020d9f60077f6af931a8bbf590da0223dacf75c7af905f5b8181106104cf5750505081610484910382611ddf565b604051918291602083019060208452518091526040830191905f5b8181106104ad575050500390f35b82516001600160a01b031684528594506020938401939092019160010161049f565b82546001600160a01b031684526020909301926001928301920161046e565b34610233575f366003190112610233576020600454604051908152f35b3461023357604036600319011261023357610524611da2565b60243590610530611fc1565b6105386120c5565b6001600160a01b039081165f8181526020819052604090205490929116156105ce576201518042018042116105ba578111156105a85760207fef0a4f71f0e2f807a8a4d5afc8a54377baeea2cfe71dee87ee1e05245cabbb1591835f52600382528060405f2055604051908152a2005b63839f254f60e01b5f5260045260245ffd5b634e487b7160e01b5f52601160045260245ffd5b50637afe31c160e11b5f5260045260245ffd5b34610233576040366003190112610233576105fa611da2565b6024359060048210156102335761060f611fc1565b6106176120c5565b6001600160a01b039081165f818152602081905260409020549091161561067c57805f52600260205261064d8260405f20611e94565b61065682611e32565b7fec9624dd7fe6a1e9ae6c2b4e7ac069d59a70d625d24eed5ccecb86d1bd867d3d5f80a3005b637afe31c160e11b5f5260045260245ffd5b34610233576040366003190112610233576106dd6004356106ad611db8565b906106d86106d3825f525f5160206124745f395f51905f52602052600160405f20015490565b61207f565b612300565b005b34610233576020366003190112610233576106f8611da2565b5f5160206124b45f395f51905f52549060ff8260401c16159167ffffffffffffffff81168015908161083f575b6001149081610835575b15908161082c575b5061081d5767ffffffffffffffff1981166001175f5160206124b45f395f51905f5255826107f1575b506001600160a01b0381161561031b576107939061077c61239c565b61078461239c565b61078d816120ec565b50612196565b5061079a57005b68ff0000000000000000195f5160206124b45f395f51905f5254165f5160206124b45f395f51905f52557fc7f505b2f371ae2175ee4913f4499e1f2633a7b5936321eed1cdaeb6115181d2602060405160018152a1005b68ffffffffffffffffff191668010000000000000001175f5160206124b45f395f51905f525582610760565b63f92ee8a960e01b5f5260045ffd5b90501584610737565b303b15915061072f565b849150610725565b34610233576020366003190112610233576001600160a01b03610868611da2565b165f52600b60205260405f20604051806020835491828152019081935f5260205f20905f5b8181106108e557505050816108a3910382611ddf565b604051918291602083019060208452518091526040830191905f5b8181106108cc575050500390f35b82518452859450602093840193909201916001016108be565b825484526020909301926001928301920161088d565b3461023357602036600319011261023357610914611da2565b61091c612030565b6001600160a01b03165f818152600a602052604090205460ff1615610a8257805f52600c60205260405f20546009545f1981019081116105ba57808203610a23575b50506009548015610a0f575f190161097581611ef2565b81546001600160a01b0360039290921b9190911b191690556009555f818152600a60209081526040808320805460ff19169055600b90915281208054918155816109f1575b82805f52600c6020525f604081205533907ff7c835af57fa00668263633370297e8186b0e3f75d50c54cad2e941512926a905f80a3005b5f5260205f20908101905b818110156109ba575f81556001016109fc565b634e487b7160e01b5f52603160045260245ffd5b610a2c90611ef2565b905460039190911b1c6001600160a01b0316610a6f81610a4b84611ef2565b81546001600160a01b0393841660039290921b91821b9390911b1916919091179055565b5f52600c60205260405f2055818061095e565b6373f18e8960e11b5f5260045260245ffd5b34610233576020366003190112610233576020610ab7610ab2611da2565b611f73565b6040519015158152f35b34610233575f366003190112610233576040805190610ae08183611ddf565b60058252640352e302e360dc1b602083015280518092602082528051908160208401525f5b828110610b235750505f828201840152601f01601f19168101030190f35b602082820181015187830187015286945001610b05565b3461023357602036600319011261023357610b53611da2565b610b5b611fc1565b610b636120c5565b6001600160a01b039081165f8181526020819052604090205490911690811561067c576008546001600160a01b031680610c11575b505f8181526020818152604080832080546001600160a01b031916905560018252808320805461ffff1916905560028252808320805460ff19169055600390915281205560045480156105ba575f19016004557f59d6590e225b81befe259af056324092801080acbb7feab310eb34678871f3275f80a3005b6040516370a0823160e01b815260048101839052602081602481855afa908115610cbc575f91610cda575b50610cc7576020602491604051928380926379b4892160e01b82528660048301525afa908115610cbc575f91610c8a575b50610c785782610b98565b63adaf8c4b60e01b5f5260045260245ffd5b90506020813d602011610cb4575b81610ca560209383611ddf565b81010312610233575183610c6d565b3d9150610c98565b6040513d5f823e3d90fd5b50636df0cea360e11b5f5260045260245ffd5b90506020813d602011610d04575b81610cf560209383611ddf565b81010312610233575184610c3c565b3d9150610ce8565b34610233575f3660031901126102335760206040515f8152f35b3461023357610d3436611e50565b610d3f929192612030565b6001600160a01b03821691821561031b57825f52600a60205260ff60405f205416610e335781156104045760095490835f52600c6020528160405f2055600160401b8210156103f057610a4b826001610d9b9401600955611ef2565b815f52600a60205260405f20600160ff19825416179055815f52600b60205260405f2067ffffffffffffffff82116103f057610dd78282611f0a565b83905f5260205f20905f5b838110610e1f575050506103d77fc174c258b74b1b9eb61f84f2f690308d39c022cc0d8b61361cb43edae7c0fbaf91604051918291339683611f4a565b600190602083359301928185015501610de2565b8263c5a1e20160e01b5f5260045260245ffd5b3461023357604036600319011261023357610e5f611db8565b6004355f525f5160206124745f395f51905f5260205260405f209060018060a01b03165f52602052602060ff60405f2054166040519015158152f35b3461023357604036600319011261023357610eb4611da2565b610ebc611db8565b90610ec5611fc1565b610ecd6120c5565b6001600160a01b0316801561031b576001600160a01b03821691821561031b573b15610f59575f818152602081905260409020546001600160a01b031690811561067c57805f525f60205260405f20836bffffffffffffffffffffffff60a01b8254161790557f9e8fe855fb89edef1315cb1d05f3b5e083450023e05286452fe6bee9179aca8c5f80a4005b5063a881615b60e01b5f5260045260245ffd5b34610233575f36600319011261023357610f84612030565b610f8c6120c5565b600160ff195f5160206124945f395f51905f525416175f5160206124945f395f51905f52557f62e78cea01bee320cd4e420270b5ea74000d11b0c9f74754ebdbfc544b05a2586020604051338152a1005b34610233575f3660031901126102335760206040517f114e74f6ea3bd819998f78687bfcb11b140da08e9b7d222fa9c1f1ba1f2aa1228152f35b34610233575f366003190112610233576006546040516001600160a01b039091168152602090f35b34610233576020366003190112610233576001600160a01b03611060611da2565b165f526001602052602061ffff60405f205416604051908152f35b34610233576020366003190112610233576040611096611da2565b6001600160a01b039081165f8181526020818152848220546002909152908490205460ff169216806110e55750505f905b8251916110d381611e32565b82526110de81611e32565b6020820152f35b3b6110f357506003906110c7565b5f526003602052815f205442115f1461110e576002906110c7565b6001906110c7565b34610233576020366003190112610233576001600160a01b03611137611da2565b165f526002602052602060ff60405f2054166040519061115681611e32565b8152f35b3461023357602036600319011261023357611173611da2565b61117b612030565b6001600160a01b0316801561031b57600680546001600160a01b031916821790557f7170bf15b246e880b2369cd7c67d057760d8a35149e8c64dde91efa22bcc76d05f80a2005b346102335760603660031901126102335760043567ffffffffffffffff8111610233576111f3903690600401611e01565b60243567ffffffffffffffff811161023357611213903690600401611e01565b9060443567ffffffffffffffff811161023357611234903690600401611e01565b92909461123f611fc1565b6112476120c5565b84158015611444575b801561143a575b6104045760c88511611427575f949194505f916301e13380420194854211935b82811061128057005b61129361128e828587611eba565b611ede565b906112a261128e828b8a611eba565b6112ad82858d611eba565b359261ffff8416809403610233576001600160a01b03169283158015611416575b61031b57813b156113f557801580156113ea575b6113d8575f848152602081905260409020546001600160a01b03166113c5575f8481526020818152604080832080546001600160a01b0319166001600160a01b03871617905560018252808320805461ffff19169094179093556002905220805460ff19169055866105ba57825f91600194835260036020528a604084205561136c600454611eac565b600455848060a01b0316817f6ae73635c50d24a45af6fbd5e016ac4bed179addbc8bf24e04ff0fcc6d33af198480a37fec9624dd7fe6a1e9ae6c2b4e7ac069d59a70d625d24eed5ccecb86d1bd867d3d8280a301611277565b8363c5a1e20160e01b5f5260045260245ffd5b63401f594f60e01b5f5260045260245ffd5b506103e781116112e2565b5063a881615b60e01b5f9081526001600160a01b0391909116600452602490fd5b506001600160a01b038216156112ce565b84636ace3f1560e01b5f5260045260245ffd5b5083851415611257565b5081851415611250565b34610233576020366003190112610233576001600160a01b0361146f611da2565b165f525f602052602060018060a01b0360405f2054161515604051908152f35b34610233575f36600319011261023357602060ff5f5160206124945f395f51905f5254166040519015158152f35b34610233576020366003190112610233576001600160a01b036114de611da2565b165f526003602052602060405f2054604051908152f35b34610233575f366003190112610233577f00000000000000000000000000000000000000000000000000000000000000006001600160a01b0316300361154c5760206040515f5160206124545f395f51905f528152f35b63703e46dd60e11b5f5260045ffd5b60403660031901126102335761156f611da2565b6024359067ffffffffffffffff8211610233573660238301121561023357816004013567ffffffffffffffff81116103f057604051926115b9601f8301601f191660200185611ddf565b818452366024838301011161023357815f9260246020930183870137840101526001600160a01b037f00000000000000000000000000000000000000000000000000000000000000001630811490811561173d575b5061154c5761161b612030565b6040516352d1902d60e01b81526001600160a01b0382169290602081600481875afa5f9181611709575b5061165d5783634c9c8ce360e01b5f5260045260245ffd5b805f5160206124545f395f51905f528592036116f75750823b156116e5575f5160206124545f395f51905f5280546001600160a01b031916821790557fbc7cd75a20ee27fd9adebab32041f755214dbc6bffa90cc0225b39da2e5c2d3b5f80a28051156116cd576106dd916123c7565b5050346116d657005b63b398979f60e01b5f5260045ffd5b634c9c8ce360e01b5f5260045260245ffd5b632a87526960e21b5f5260045260245ffd5b9091506020813d602011611735575b8161172560209383611ddf565b8101031261023357519085611645565b3d9150611718565b5f5160206124545f395f51905f52546001600160a01b0316141590508361160e565b3461023357606036600319011261023357611778611da2565b611780611db8565b90611789611dce565b90611792611fc1565b61179a6120c5565b6001600160a01b031690811561031b576001600160a01b03831692831561031b573b156118c25761ffff16801580156118b7575b6113d8575f828152602081905260409020546001600160a01b03166118a4575f8281526020818152604080832080546001600160a01b0319168717905560018252808320805461ffff19169094179093556002905220805460ff19169055426301e133808101929083106105ba575f9282845260036020526040842055611856600454611eac565b600455817f6ae73635c50d24a45af6fbd5e016ac4bed179addbc8bf24e04ff0fcc6d33af198480a37fec9624dd7fe6a1e9ae6c2b4e7ac069d59a70d625d24eed5ccecb86d1bd867d3d8280a3005b5063c5a1e20160e01b5f5260045260245ffd5b506103e781116117ce565b8263a881615b60e01b5f5260045260245ffd5b34610233575f366003190112610233576118ed612030565b5f5160206124945f395f51905f525460ff8116156119445760ff19165f5160206124945f395f51905f52557f5db9ee0a495bf2e6ff9c91a7834c1ba4fdd244a5e8aa4e537bd38aeae4b073aa6020604051338152a1005b638dfc202b60e01b5f5260045ffd5b34610233575f366003190112610233576005546040516001600160a01b039091168152602090f35b3461023357604036600319011261023357611994611da2565b6024359061ffff8216809203610233576119ac611fc1565b6119b46120c5565b81158015611a32575b611a1f576001600160a01b039081165f818152602081905260409020549091161561067c57805f52600160205260405f208261ffff198254161790557f04ed3b726495c2dca1ff1215d9ca54e1a4030abb5e82b0f6ce55702416cee8535f80a3005b5063401f594f60e01b5f5260045260245ffd5b506103e782116119bd565b3461023357604036600319011261023357611a56611db8565b336001600160a01b03821603611a72576106dd90600435612300565b63334bd91960e11b5f5260045ffd5b34610233576040366003190112610233576106dd600435611aa0611db8565b90611ac66106d3825f525f5160206124745f395f51905f52602052600160405f20015490565b612262565b3461023357602036600319011261023357611ae4611da2565b611aec612030565b6001600160a01b0316801561031b57600580546001600160a01b031916821790557f9cc094e0c53d8a746843eb119f7234807f5a6ea8b7a01806fb2cc4130ce1a4355f80a2005b34610233576020366003190112610233576020611b6a6004355f525f5160206124745f395f51905f52602052600160405f20015490565b604051908152f35b34610233575f366003190112610233576007546040516001600160a01b039091168152602090f35b3461023357602036600319011261023357611bb3611da2565b611bbb612030565b6001600160a01b03811690811561031b573b15611bee576bffffffffffffffffffffffff60a01b60085416176008555f80f35b63a881615b60e01b5f5260045260245ffd5b346102335760a036600319011261023357611c19611da2565b611c21611db8565b611c29611dce565b906064359260048410156102335760843590611c43611fc1565b611c4b6120c5565b6001600160a01b031692831561031b576001600160a01b03831692831561031b573b156118c25761ffff1680158015611d44575b6113d8575f848152602081905260409020546001600160a01b03166113c55742821115611d31575f8481526020818152604080832080546001600160a01b0319168717905560018252808320805461ffff19169094179093556002905220611ce8908590611e94565b825f52600360205260405f2055611d00600454611eac565b600455817f6ae73635c50d24a45af6fbd5e016ac4bed179addbc8bf24e04ff0fcc6d33af195f80a361065682611e32565b836351f6abb960e01b5f5260045260245ffd5b506103e78111611c7f565b34610233576020366003190112610233576004359063ffffffff60e01b821680920361023357602091637965db0b60e01b8114908115611d91575b5015158152f35b6301ffc9a760e01b14905083611d8a565b600435906001600160a01b038216820361023357565b602435906001600160a01b038216820361023357565b6044359061ffff8216820361023357565b90601f8019910116810190811067ffffffffffffffff8211176103f057604052565b9181601f840112156102335782359167ffffffffffffffff8311610233576020808501948460051b01011161023357565b60041115611e3c57565b634e487b7160e01b5f52602160045260245ffd5b906040600319830112610233576004356001600160a01b038116810361023357916024359067ffffffffffffffff821161023357611e9091600401611e01565b9091565b90611e9e81611e32565b60ff80198354169116179055565b5f1981146105ba5760010190565b9190811015611eca5760051b0190565b634e487b7160e01b5f52603260045260245ffd5b356001600160a01b03811681036102335790565b600954811015611eca5760095f5260205f2001905f90565b90600160401b81116103f057815491818155828210611f2857505050565b5f5260205f2091820191015b818110611f3f575050565b5f8155600101611f34565b602080825281018390526001600160fb1b0383116102335760409260051b809284830137010190565b6001600160a01b039081165f818152602081905260409020549091168015611fbb573b15611fb6575f52600360205260405f20544211611fb257600190565b5f90565b505f90565b50505f90565b335f9081527fecfb03a241cc67499591701273c9840824101e710aea92d3ca0339671f5c64c0602052604090205460ff1615611ff957565b63e2517d3f60e01b5f52336004527f114e74f6ea3bd819998f78687bfcb11b140da08e9b7d222fa9c1f1ba1f2aa12260245260445ffd5b335f9081527fb7db2dd08fcb62d0c9e08c51941cae53c267786a0b75803fb7960902fc8ef97d602052604090205460ff161561206857565b63e2517d3f60e01b5f52336004525f60245260445ffd5b5f8181525f5160206124745f395f51905f526020908152604080832033845290915290205460ff16156120af5750565b63e2517d3f60e01b5f523360045260245260445ffd5b60ff5f5160206124945f395f51905f5254166120dd57565b63d93c066560e01b5f5260045ffd5b6001600160a01b0381165f9081527fb7db2dd08fcb62d0c9e08c51941cae53c267786a0b75803fb7960902fc8ef97d602052604090205460ff16611fb6576001600160a01b03165f8181527fb7db2dd08fcb62d0c9e08c51941cae53c267786a0b75803fb7960902fc8ef97d60205260408120805460ff191660011790553391907f2f8788117e7eff1d82e926ec794901d17c78024a50270940304540a733656f0d8180a4600190565b6001600160a01b0381165f9081527fecfb03a241cc67499591701273c9840824101e710aea92d3ca0339671f5c64c0602052604090205460ff16611fb6576001600160a01b03165f8181527fecfb03a241cc67499591701273c9840824101e710aea92d3ca0339671f5c64c060205260408120805460ff191660011790553391907f114e74f6ea3bd819998f78687bfcb11b140da08e9b7d222fa9c1f1ba1f2aa122907f2f8788117e7eff1d82e926ec794901d17c78024a50270940304540a733656f0d9080a4600190565b5f8181525f5160206124745f395f51905f52602090815260408083206001600160a01b038616845290915290205460ff16611fbb575f8181525f5160206124745f395f51905f52602090815260408083206001600160a01b0395909516808452949091528120805460ff19166001179055339291907f2f8788117e7eff1d82e926ec794901d17c78024a50270940304540a733656f0d9080a4600190565b5f8181525f5160206124745f395f51905f52602090815260408083206001600160a01b038616845290915290205460ff1615611fbb575f8181525f5160206124745f395f51905f52602090815260408083206001600160a01b0395909516808452949091528120805460ff19169055339291907ff6391f5c32d9c69d2a47ea670b442974b53935d1edc7fd64eb21e047a839171b9080a4600190565b60ff5f5160206124b45f395f51905f525460401c16156123b857565b631afcd79f60e31b5f5260045ffd5b905f8091602081519101845af48080612440575b156123fb5750506040513d81523d5f602083013e60203d82010160405290565b1561242057639996b31560e01b5f9081526001600160a01b0391909116600452602490fd5b3d15612431576040513d5f823e3d90fd5b63d6bda27560e01b5f5260045ffd5b503d1515806123db5750813b15156123db56fe360894a13ba1a3210667c828492db98dca3e2076cc3735a920a3ca505d382bbc02dd7bc7dec4dceedda775e58dd541e08a116c6c53815c0bd028192f7b626800cd5ed15c6e187e77e9aee88184c21f4f2182ab5827cb3b7e07fbedcd63f03300f0c57e16840df040f15088dc2f81fe391c3923bec73e23a9662efc9c229c6a00a26469706673582212209b0be0c58c5c2ea64af08234755c60710f168ee0d6403ee0769f4f377232f11c64736f6c634300081c0033f0c57e16840df040f15088dc2f81fe391c3923bec73e23a9662efc9c229c6a00",
        "nonce": "0x6",
        "chainId": "0xaa36a7"
      },
      "additionalContracts": [],
      "isFixedGasLimit": false
    },
    {
      "hash": "0xf143126f19c839812e3a4b5f193c4f66e2a10c9d7939ab6dc9f58576a86be3e9",
      "transactionType": "CREATE",
      "contractName": "ComplianceEngine",
      "contractAddress": "0xa66bcfc4ae9b856c6a9594eec3ad37f3c03af8df",
      "function": null,
      "arguments": null,
      "transaction": {
        "from": "0x9e3f8146d3fa4b37033e73bfc95728f5b65b2473",
        "to": null,
        "gas": "0x1ff8db",
        "value": "0x0",
        "input": "0x60a080604052346100c257306080525f516020611c785f395f51905f525460ff8160401c166100b3576002600160401b03196001600160401b03821601610060575b604051611bb190816100c7823960805181818161085801526109560152f35b6001600160401b0319166001600160401b039081175f516020611c785f395f51905f525581527fc7f505b2f371ae2175ee4913f4499e1f2633a7b5936321eed1cdaeb6115181d290602090a15f80610041565b63f92ee8a960e01b5f5260045ffd5b5f80fdfe6080806040526004361015610012575f80fd5b5f3560e01c90816301ffc9a71461109757508063052d9e7e1461102e578063134e18f414611006578063144bf58914610fcc5780631a6e3f6e14610fa95780631ed86f1914610f59578063248a9ca314610f1a5780632f2ff15d14610ed057806336568abe14610e8c5780633af32abf14610e4f5780633f4ba83a14610dd15780633ff5aa0214610d6a57806340db3b5014610cea5780634670dffe14610c7f578063485cc95514610ae65780634f1ef286146108ce57806351fb012d146108ac57806352d1902d14610846578063594b49a8146107d85780635c975abb146107aa5780635f8dead3146106fc57806374aedd12146107905780638456cb591461070f5780638baf29b4146107015780638d2ea772146106fc57806391d14854146106a75780639281aa0b1461062957806394daa658146105bd578063a06324611461056d578063a217fddf14610553578063a33f5c9f14610479578063a446d49f14610455578063ad3cb1cc146103dc578063b2494df31461036c578063bc4c855214610331578063cbf3f861146102ba578063d547741f14610269578063e58398361461022c578063eb697611146101ff5763fc0c546a146101d4575f80fd5b346101fb575f3660031901126101fb575f546040516001600160a01b039091168152602090f35b5f80fd5b346101fb5760403660031901126101fb57602061022261021d6110ea565b61142e565b6040519015158152f35b346101fb5760203660031901126101fb576001600160a01b0361024d6110ea565b165f526002602052602060ff60405f2054166040519015158152f35b346101fb5760403660031901126101fb576102b8600435610288611100565b906102b36102ae825f525f516020611b1c5f395f51905f52602052600160405f20015490565b611249565b6119a8565b005b346101fb5760203660031901126101fb576102d36110ea565b6102db61118b565b6001600160a01b0316801561032257600180546001600160a01b031916821790557f8aa6172b9dcbe4f05892121059bc535d4743d706ba3ac6cbabf4a40de229e3885f80a2005b6302f668d160e51b5f5260045ffd5b346101fb5760203660031901126101fb5760043561ffff81168091036101fb575f526003602052602060ff60405f2054166040519015158152f35b346101fb575f3660031901126101fb57604051602061038b8183611116565b5f82525f368137604051918183928301818452825180915281604085019301915f5b8281106103bc57505050500390f35b83516001600160a01b0316855286955093810193928101926001016103ad565b346101fb575f3660031901126101fb5760408051906103fb8183611116565b60058252640352e302e360dc1b602083015280518092602082528051908160208401525f5b82811061043e5750505f828201840152601f01601f19168101030190f35b602082820181015187830187015286945001610420565b346101fb5760203660031901126101fb5761046e6110ea565b5060206040515f8152f35b346101fb5760403660031901126101fb576104926110ea565b60243567ffffffffffffffff81116101fb57366023820112156101fb5780600401359167ffffffffffffffff83116101fb5736602484840101116101fb577f212f70cf9d119076483e8749cb36880e86dc23c8fdb7080820dc00c683b9fddc906104fa6111da565b60018060a01b031691825f52600260205260405f20600160ff1982541617905583602460405192604084528260408501520160608301375f606085830101524260208201526060813395601f80199101168101030190a3005b346101fb575f3660031901126101fb5760206040515f8152f35b346101fb5760203660031901126101fb576105866110ea565b61058e61118b565b6001600160a01b03167f0a1ee69f55c33d8467c69ca59ce2007a737a88603d75392972520bf67cb513b85f80a2005b346101fb5760203660031901126101fb576105d66110ea565b6105de6111da565b60018060a01b0316805f52600260205260405f2060ff198154169055604051904282527faffa0689ce60b24a9731c526ea6b13b6a22b768c69c39c5de2dd6e6626de0ebc60203393a3005b346101fb5760403660031901126101fb576106426110ea565b602435908115158092036101fb576106586111da565b60018060a01b0316805f52600460205260405f2060ff1981541660ff84161790556040519182527f0daf0507017b7c168d50508ec65e8ea74607d268349dad62c5de525f6864b75760203393a3005b346101fb5760403660031901126101fb576106c0611100565b6004355f525f516020611b1c5f395f51905f5260205260405f209060018060a01b03165f52602052602060ff60405f2054166040519015158152f35b611138565b346101fb576102b836611151565b346101fb575f3660031901126101fb5761072761118b565b5f516020611b3c5f395f51905f525460ff81166107815760019060ff1916175f516020611b3c5f395f51905f52557f62e78cea01bee320cd4e420270b5ea74000d11b0c9f74754ebdbfc544b05a2586020604051338152a1005b63d93c066560e01b5f5260045ffd5b346101fb5760206102226107a336611151565b5090611599565b346101fb575f3660031901126101fb57602060ff5f516020611b3c5f395f51905f5254166040519015158152f35b346101fb5760203660031901126101fb5760043561ffff81168091036101fb576108006111da565b805f52600360205260405f20600160ff19825416179055604051904282527f351a2b5d39137e62395238bc80965a31231300d9dd0f1cc9e8b4819b50586d3760203393a3005b346101fb575f3660031901126101fb577f00000000000000000000000000000000000000000000000000000000000000006001600160a01b0316300361089d5760206040515f516020611afc5f395f51905f528152f35b63703e46dd60e11b5f5260045ffd5b346101fb575f3660031901126101fb57602060ff600554166040519015158152f35b60403660031901126101fb576108e26110ea565b6024359067ffffffffffffffff82116101fb57366023830112156101fb57816004013567ffffffffffffffff8111610ad2576040519261092c601f8301601f191660200185611116565b81845236602483830101116101fb57815f9260246020930183870137840101526001600160a01b037f000000000000000000000000000000000000000000000000000000000000000016308114908115610ab0575b5061089d5761098e61118b565b6040516352d1902d60e01b81526001600160a01b0382169290602081600481875afa5f9181610a7c575b506109d05783634c9c8ce360e01b5f5260045260245ffd5b805f516020611afc5f395f51905f52859203610a6a5750823b15610a58575f516020611afc5f395f51905f5280546001600160a01b031916821790557fbc7cd75a20ee27fd9adebab32041f755214dbc6bffa90cc0225b39da2e5c2d3b5f80a2805115610a40576102b891611a6f565b505034610a4957005b63b398979f60e01b5f5260045ffd5b634c9c8ce360e01b5f5260045260245ffd5b632a87526960e21b5f5260045260245ffd5b9091506020813d602011610aa8575b81610a9860209383611116565b810103126101fb575190856109b8565b3d9150610a8b565b5f516020611afc5f395f51905f52546001600160a01b03161415905083610981565b634e487b7160e01b5f52604160045260245ffd5b346101fb5760403660031901126101fb57610aff6110ea565b610b07611100565b905f516020611b5c5f395f51905f52549160ff8360401c16159267ffffffffffffffff811680159081610c77575b6001149081610c6d575b159081610c64575b50610c555767ffffffffffffffff1981166001175f516020611b5c5f395f51905f525583610c29575b506001600160a01b03821615610322576001600160a01b031690811561032257610bb390610b9c611a44565b610ba4611a44565b610bad81611794565b5061183e565b506bffffffffffffffffffffffff60a01b6001541617600155610bd257005b68ff0000000000000000195f516020611b5c5f395f51905f5254165f516020611b5c5f395f51905f52557fc7f505b2f371ae2175ee4913f4499e1f2633a7b5936321eed1cdaeb6115181d2602060405160018152a1005b68ffffffffffffffffff191668010000000000000001175f516020611b5c5f395f51905f525583610b70565b63f92ee8a960e01b5f5260045ffd5b90501585610b47565b303b159150610b3f565b859150610b35565b346101fb5760203660031901126101fb5760043561ffff81168091036101fb57610ca76111da565b805f52600360205260405f2060ff198154169055604051904282527f0b5bc6409a383d61c4b16a52cb80b4f9ec4d104cdd0bf44993a8b26bab7eb6a460203393a3005b346101fb5760203660031901126101fb57610d036110ea565b610d0b61118b565b5f546001600160a01b03918216918116829003610d5b576bffffffffffffffffffffffff60a01b165f557f28a4ca7134a3b3f9aff286e79ad3daadb4a06d1b43d037a3a98bdc074edd9b7a5f80a2005b63e82c42a960e01b5f5260045ffd5b346101fb5760203660031901126101fb57610d836110ea565b610d8b61118b565b6001600160a01b03168015610322575f80546001600160a01b031916821781557f2de35142b19ed5a07796cf30791959c592018f70b1d2d7c460eef8ffe713692b9080a2005b346101fb575f3660031901126101fb57610de961118b565b5f516020611b3c5f395f51905f525460ff811615610e405760ff19165f516020611b3c5f395f51905f52557f5db9ee0a495bf2e6ff9c91a7834c1ba4fdd244a5e8aa4e537bd38aeae4b073aa6020604051338152a1005b638dfc202b60e01b5f5260045ffd5b346101fb5760203660031901126101fb576001600160a01b03610e706110ea565b165f526004602052602060ff60405f2054166040519015158152f35b346101fb5760403660031901126101fb57610ea5611100565b336001600160a01b03821603610ec1576102b8906004356119a8565b63334bd91960e11b5f5260045ffd5b346101fb5760403660031901126101fb576102b8600435610eef611100565b90610f156102ae825f525f516020611b1c5f395f51905f52602052600160405f20015490565b61190a565b346101fb5760203660031901126101fb576020610f516004355f525f516020611b1c5f395f51905f52602052600160405f20015490565b604051908152f35b346101fb5760203660031901126101fb57610f726110ea565b610f7a61118b565b6001600160a01b03167fead6a006345da1073a106d5f32372d2d2204f46cb0b4bca8f5ebafcbbed12b8a5f80a2005b346101fb5760403660031901126101fb576020610222610fc76110ea565b6112c1565b346101fb575f3660031901126101fb5760206040517f20b5f7ac978e5d6199de06401411960dfa81d2f762655f6206bdc61d46fc19e68152f35b346101fb575f3660031901126101fb576001546040516001600160a01b039091168152602090f35b346101fb5760203660031901126101fb576004358015158091036101fb5761105461118b565b60ff196005541660ff8216176005556040519081524260208201527f54a2bc6a4dcc072ad09f545c2169a90b6c0f16c2659a6ad6eb177ace22da406060403392a2005b346101fb5760203660031901126101fb576004359063ffffffff60e01b82168092036101fb57602091637965db0b60e01b81149081156110d9575b5015158152f35b6301ffc9a760e01b149050836110d2565b600435906001600160a01b03821682036101fb57565b602435906001600160a01b03821682036101fb57565b90601f8019910116810190811067ffffffffffffffff821117610ad257604052565b346101fb5760403660031901126101fb576102b86110ea565b60609060031901126101fb576004356001600160a01b03811681036101fb57906024356001600160a01b03811681036101fb579060443590565b335f9081527fb7db2dd08fcb62d0c9e08c51941cae53c267786a0b75803fb7960902fc8ef97d602052604090205460ff16156111c357565b63e2517d3f60e01b5f52336004525f60245260445ffd5b335f9081527fee216a338b49dac20876e0a71bbec28b8c271dac7953d46a3d0077609854d7ef602052604090205460ff161561121257565b63e2517d3f60e01b5f52336004527f20b5f7ac978e5d6199de06401411960dfa81d2f762655f6206bdc61d46fc19e660245260445ffd5b5f8181525f516020611b1c5f395f51905f526020908152604080832033845290915290205460ff16156112795750565b63e2517d3f60e01b5f523360045260245260445ffd5b908160209103126101fb575180151581036101fb5790565b908160209103126101fb575161ffff811681036101fb5790565b60ff5f516020611b3c5f395f51905f525416611429576001600160a01b031680151580806113b7575b61139b5780806113a1575b61139b57611304575b50600190565b600154604051637e42683b60e01b81526004810192909252602090829060249082906001600160a01b03165afa80156113905761ffff915f91611361575b50165f52600360205260ff60405f20541661135d575f6112fe565b5f90565b611383915060203d602011611389575b61137b8183611116565b8101906112a7565b5f611342565b503d611371565b6040513d5f823e3d90fd5b50505f90565b50815f52600260205260ff60405f2054166112f5565b5060015460405163b9209e3360e01b81526004810184905290602090829060249082906001600160a01b03165afa908115611390575f916113fa575b50156112ea565b61141c915060203d602011611422575b6114148183611116565b81019061128f565b5f6113f3565b503d61140a565b505f90565b60ff5f516020611b3c5f395f51905f525416611429576001600160a01b0316801515908180611537575b61139b578180611521575b61139b57816114a8575b8161149b575b81611483575b5061135d57600190565b90505f52600460205260ff60405f205416155f611479565b60055460ff169150611473565b600154604051637e42683b60e01b81526004810183905290602090829060249082906001600160a01b03165afa80156113905761ffff915f91611502575b50165f52600360205260ff60405f2054161561146d5750505f90565b61151b915060203d6020116113895761137b8183611116565b5f6114e6565b50805f52600260205260ff60405f205416611463565b5060015460405163b9209e3360e01b81526004810183905290602090829060249082906001600160a01b03165afa908115611390575f9161157a575b5015611458565b611593915060203d602011611422576114148183611116565b5f611573565b60ff5f516020611b3c5f395f51905f52541661139b576001600160a01b031690811515908180611732575b61172b576001600160a01b03168015159290919083806116c9575b6116955781806116b3575b61169557838061169d575b611695578391611619575b506114a8578161149b5781611483575061135d57600190565b600154604051637e42683b60e01b81526004810192909252909150602090829060249082906001600160a01b03165afa80156113905761ffff915f91611676575b50165f52600360205260ff60405f20541661139b57815f611600565b61168f915060203d6020116113895761137b8183611116565b5f61165a565b505050505f90565b50825f52600260205260ff60405f2054166115f5565b50805f52600260205260ff60405f2054166115ea565b5060015460405163b9209e3360e01b81526004810185905290602090829060249082906001600160a01b03165afa908115611390575f9161170c575b50156115df565b611725915060203d602011611422576114148183611116565b5f611705565b5050505f90565b5060015460405163b9209e3360e01b81526004810185905290602090829060249082906001600160a01b03165afa908115611390575f91611775575b50156115c4565b61178e915060203d602011611422576114148183611116565b5f61176e565b6001600160a01b0381165f9081527fb7db2dd08fcb62d0c9e08c51941cae53c267786a0b75803fb7960902fc8ef97d602052604090205460ff16611429576001600160a01b03165f8181527fb7db2dd08fcb62d0c9e08c51941cae53c267786a0b75803fb7960902fc8ef97d60205260408120805460ff191660011790553391907f2f8788117e7eff1d82e926ec794901d17c78024a50270940304540a733656f0d8180a4600190565b6001600160a01b0381165f9081527fee216a338b49dac20876e0a71bbec28b8c271dac7953d46a3d0077609854d7ef602052604090205460ff16611429576001600160a01b03165f8181527fee216a338b49dac20876e0a71bbec28b8c271dac7953d46a3d0077609854d7ef60205260408120805460ff191660011790553391907f20b5f7ac978e5d6199de06401411960dfa81d2f762655f6206bdc61d46fc19e6907f2f8788117e7eff1d82e926ec794901d17c78024a50270940304540a733656f0d9080a4600190565b5f8181525f516020611b1c5f395f51905f52602090815260408083206001600160a01b038616845290915290205460ff1661139b575f8181525f516020611b1c5f395f51905f52602090815260408083206001600160a01b0395909516808452949091528120805460ff19166001179055339291907f2f8788117e7eff1d82e926ec794901d17c78024a50270940304540a733656f0d9080a4600190565b5f8181525f516020611b1c5f395f51905f52602090815260408083206001600160a01b038616845290915290205460ff161561139b575f8181525f516020611b1c5f395f51905f52602090815260408083206001600160a01b0395909516808452949091528120805460ff19169055339291907ff6391f5c32d9c69d2a47ea670b442974b53935d1edc7fd64eb21e047a839171b9080a4600190565b60ff5f516020611b5c5f395f51905f525460401c1615611a6057565b631afcd79f60e31b5f5260045ffd5b905f8091602081519101845af48080611ae8575b15611aa35750506040513d81523d5f602083013e60203d82010160405290565b15611ac857639996b31560e01b5f9081526001600160a01b0391909116600452602490fd5b3d15611ad9576040513d5f823e3d90fd5b63d6bda27560e01b5f5260045ffd5b503d151580611a835750813b1515611a8356fe360894a13ba1a3210667c828492db98dca3e2076cc3735a920a3ca505d382bbc02dd7bc7dec4dceedda775e58dd541e08a116c6c53815c0bd028192f7b626800cd5ed15c6e187e77e9aee88184c21f4f2182ab5827cb3b7e07fbedcd63f03300f0c57e16840df040f15088dc2f81fe391c3923bec73e23a9662efc9c229c6a00a264697066735822122036d4c2383d9576f7dcf303ba9e2e2476fdacf05aa1c8af0b82354c374f125b0464736f6c634300081c0033f0c57e16840df040f15088dc2f81fe391c3923bec73e23a9662efc9c229c6a00",
        "nonce": "0x7",
        "chainId": "0xaa36a7"
      },
      "additionalContracts": [],
      "isFixedGasLimit": false
    },
    {
      "hash": "0x530df635d1c52c7d2a1f8af4510dac98ecf8944f0a281a1c5c9bbcea36964ad7",
      "transactionType": "CREATE",
      "contractName": "DubaiRealEstateToken",
      "contractAddress": "0x54d3853ad3c283ac12cbfa2ff8ff0a72b27b49be",
      "function": null,
      "arguments": null,
      "transaction": {
        "from": "0x9e3f8146d3fa4b37033e73bfc95728f5b65b2473",
        "to": null,
        "gas": "0x3ea4ea",
        "value": "0x0",
        "input": "0x60a080604052346100e65760017f9b779b17422d0df92223018b32b4d1fa46e071723d6817e2486d003becc55f0055306080525f5160206138215f395f51905f525460ff8160401c166100d7576002600160401b03196001600160401b03821601610084575b60405161373690816100eb823960805181818161150801526115ad0152f35b6001600160401b0319166001600160401b039081175f5160206138215f395f51905f525581527fc7f505b2f371ae2175ee4913f4499e1f2633a7b5936321eed1cdaeb6115181d290602090a15f80610065565b63f92ee8a960e01b5f5260045ffd5b5f80fdfe6080806040526004361015610012575f80fd5b5f905f3560e01c908163013eba92146124b55750806301ffc9a71461245f57806306fdde031461237d578063095ea7b3146122fe578063134e18f4146122d6578063144bf5891461229c57806318160ddd1461227357806323b872dd1461219b578063248a9ca3146121645780632f2ff15d1461211a578063313ce567146120ff5780633243c79114611f4a57806332cb6b0c14611f2657806336568abe14611ee05780633ad8b2d714611ce15780633f4ba83a14611c6357806340c10f19146119a857806342966c681461173d5780634f1ef2861461155c57806352d1902d146114f55780635749c7fc146114d75780635c785849146112d45780635c975abb146112a5578063668038e0146111795780636857310714610de357806370a0823114610d9e57806377ec0feb14610d8057806379b4892114610d5c5780638284ce3e14610d3057806382aefa2414610cf55780638456cb5914610c8257806391d1485414610c2c57806395d89b4114610b39578063a217fddf14610b1d578063a53df2e214610ab4578063a5b81fdf146104f5578063a9059cbb146104c3578063ad3cb1cc1461047e578063c792645814610445578063c8f4eb6b1461041c578063cbf3f8611461039c578063d547741f14610348578063dd62ed3e14610300578063e74307bb1461025f578063e9cbd822146102385763fad9aba314610218575f80fd5b346102355780600319360112610235576020600454604051908152f35b80fd5b5034610235578060031936011261023557546040516001600160a01b039091168152602090f35b5034610235576020366003190112610235576102796124e9565b610281612c88565b6001600160a01b0381169081156102f1573b156102df57600280546001600160a01b0319811683179091553391906001600160a01b03167fd52694afd1fd09e8c1dd126d6595702b7845f9815d076575efe98c90506559778480a480f35b6333d26a8f60e21b8252600452602490fd5b6339379d0760e01b8352600483fd5b50346102355760403660031901126102355761031a6124e9565b61032b6103256124ff565b91612515565b9060018060a01b03165f52602052602060405f2054604051908152f35b5034610235576040366003190112610235576103986004356103686124ff565b9061039361038e825f525f5160206136815f395f51905f52602052600160405f20015490565b612cd7565b61301b565b5080f35b5034610235576020366003190112610235576103b66124e9565b6103be612c88565b6001600160a01b0381169081156102f1573b156102df57600180546001600160a01b0319811683179091553391906001600160a01b03167fd8fa692ac0d9e4290e5918daea75c089d062de460417cbe9e6378d83d928eb018480a480f35b50346102355780600319360112610235576002546040516001600160a01b039091168152602090f35b5034610235576020366003190112610235576020906040906001600160a01b0361046d6124e9565b168152600683522054604051908152f35b5034610235578060031936011261023557506104bf6040516104a16040826125e6565b60058152640352e302e360dc1b602082015260405191829182612572565b0390f35b5034610235576040366003190112610235576104ea6104e06124e9565b602435903361287e565b602060405160018152f35b50346102355760c03660031901126102355761050f6124e9565b906105186124ff565b6044356001600160a01b038116808203610ab0576064356001600160401b038111610aac5761054b903690600401612690565b916084356001600160401b038111610aa85761056b903690600401612690565b9560a435936001600160a01b03851692838603610aa4575f5160206136e15f395f51905f52549660ff8860401c1615976001600160401b03811680159081610a9c575b6001149081610a92575b159081610a89575b50610a7a5767ffffffffffffffff1981166001175f5160206136e15f395f51905f525588610a4e575b506001600160a01b038416938415610a30576001600160a01b038216958615610a3f578715610a3f5715610a30573b15610a1c573b15610a08573b156109f4576106316134e9565b6106396134e9565b8051906001600160401b0382116109e05781906106635f5160206135c15f395f51905f52546126ae565b601f8111610966575b50602090601f83116001146108ea5789926108df575b50508160011b915f199060031b1c1916175f5160206135c15f395f51905f52555b86516001600160401b0381116108cb576106ca5f5160206136015f395f51905f52546126ae565b601f811161085c575b506020601f82116001146107dc57819088996107719899926107d1575b50508160011b915f199060031b1c1916175f5160206136015f395f51905f52555b6107196134e9565b6107216134e9565b6001600160601b0360a01b8754161786556001600160601b0360a01b60015416176001556001600160601b0360a01b600254161760025561076181612d1d565b5061076b81612db9565b50612e72565b506107795780f35b68ff0000000000000000195f5160206136e15f395f51905f5254165f5160206136e15f395f51905f52557fc7f505b2f371ae2175ee4913f4499e1f2633a7b5936321eed1cdaeb6115181d2602060405160018152a180f35b015190505f806106f0565b5f5160206136015f395f51905f52885280882098601f198316895b81811061084457509161077198999a9184600195941061082c575b505050811b015f5160206136015f395f51905f5255610711565b01515f1960f88460031b161c191690555f8080610812565b838301518c556001909b019a602093840193016107f7565b5f5160206136015f395f51905f5288527f46a2803e59a4de4e7a4c574b1243f25977ac4c77d5a1a4a609b5394cebb4a2aa601f830160051c810191602084106108c1575b601f0160051c01905b8181106108b657506106d3565b8881556001016108a9565b90915081906108a0565b634e487b7160e01b87526041600452602487fd5b015190505f80610682565b5f5160206135c15f395f51905f528a52818a209250601f1984168a5b81811061094e5750908460019594939210610936575b505050811b015f5160206135c15f395f51905f52556106a3565b01515f1960f88460031b161c191690555f808061091c565b92936020600181928786015181550195019301610906565b5f5160206135c15f395f51905f528a529091507f2ae08a8e29253f69ac5d979a101956ab8f8d9d7ded63fa7a83b16fc47648eab0601f840160051c810191602085106109d6575b90601f859493920160051c01905b8181106109c8575061066c565b8a81558493506001016109bb565b90915081906109ad565b634e487b7160e01b88526041600452602488fd5b6333d26a8f60e21b87526004849052602487fd5b6333d26a8f60e21b88526004849052602488fd5b6333d26a8f60e21b89526004849052602489fd5b6339379d0760e01b8a5260048afd5b6339379d0760e01b8b5260048bfd5b68ffffffffffffffffff191668010000000000000001175f5160206136e15f395f51905f52555f6105e9565b63f92ee8a960e01b8a5260048afd5b9050155f6105c0565b303b1591506105b8565b8a91506105ae565b8780fd5b8580fd5b8480fd5b8380fd5b5034610235578060031936011261023557610acd612c88565b610ad5612fe3565b6004548015610b0e5760048290558154610afa919033906001600160a01b0316613471565b60015f5160206136c15f395f51905f525580f35b634af455f760e01b8252600482fd5b5034610235578060031936011261023557602090604051908152f35b503461023557806003193601126102355760405190805f5160206136015f395f51905f525490610b68826126ae565b8085529160018116908115610c055750600114610b9c575b6104bf84610b90818603826125e6565b60405191829182612572565b5f5160206136015f395f51905f5281527f46a2803e59a4de4e7a4c574b1243f25977ac4c77d5a1a4a609b5394cebb4a2aa939250905b808210610beb57509091508101602001610b9082610b80565b919260018160209254838588010152019101909291610bd2565b60ff191660208087019190915292151560051b85019092019250610b909150839050610b80565b5034610235576040366003190112610235576040610c486124ff565b9160043581525f5160206136815f395f51905f52602052209060018060a01b03165f52602052602060ff60405f2054166040519015158152f35b5034610235578060031936011261023557610c9b612c88565b610ca3612fbc565b600160ff195f5160206136a15f395f51905f525416175f5160206136a15f395f51905f52557f62e78cea01bee320cd4e420270b5ea74000d11b0c9f74754ebdbfc544b05a2586020604051338152a180f35b503461023557806003193601126102355760206040517f114e74f6ea3bd819998f78687bfcb11b140da08e9b7d222fa9c1f1ba1f2aa1228152f35b5034610235576020366003190112610235576020610d54610d4f6124e9565b6127f3565b604051908152f35b5034610235576020366003190112610235576020610d54610d7b6124e9565b61277c565b50346102355780600319360112610235576020600354604051908152f35b5034610235576020366003190112610235576020906040906001600160a01b03610dc66124e9565b1681525f5160206135e15f395f51905f5283522054604051908152f35b5034610235576040366003190112610235576004356001600160401b03811161117557610e14903690600401612660565b6024356001600160401b038111610ab057610e33903690600401612660565b91610e3c612baa565b610e44612fbc565b610e4c612fe3565b82810361116657606481116111665784855b82811061114657505f5160206136215f395f51905f5254690a968163f0a57b400000610e8a83836126e6565b1161111c575050845b818110610eaf578560015f5160206136c15f395f51905f525580f35b610eba818387612758565b356001600160a01b0381169190828103610aa457610ed9828787612758565b3590831561110d576002546040516372c1cc1b60e11b8152600481018690526001600160a01b0390911690602081602481855afa908115611102578b916110e4575b506110d05782156110c457610f2f826130b7565b60405163eb69761160e01b81526001600160a01b03831660048201526024810184905290602090829060449082905afa9081156110b9578a9161108b575b5015611074578890848252600560205260408220541580611063575b1561105557600354858352600560205260408320555b610fa983826132c3565b6002546001600160a01b0316803b1561105157604051635f8dead360e01b81526001600160a01b039290921660048301526024820184905282908290604490829084905af1801561104657611031575b50506001926040519182527f969cd201f68f120baff2bf3c59bc3b534434e08b69a71a14ab85cb79cd3b63e460203393a35b01610e93565b8161103b916125e6565b610aa457875f610ff9565b6040513d84823e3d90fd5b8280fd5b61105e81613131565b610f9f565b5061106d8161254d565b5415610f89565b60448985631d36dbfb60e01b825281600452602452fd5b6110ac915060203d81116110b2575b6110a481836125e6565b810190612713565b5f610f6d565b503d61109a565b6040513d8c823e3d90fd5b5050506001915061102b565b63191064f160e01b8a52600485905260248afd5b6110fc915060203d81116110b2576110a481836125e6565b5f610f1b565b6040513d8d823e3d90fd5b6339379d0760e01b8952600489fd5b61112960449288926126e6565b6304ccbadd60e41b8252600452690a968163f0a57b400000602452fd5b9061115f600191611158848888612758565b35906126e6565b9101610e5e565b63b3585f4760e01b8552600485fd5b5080fd5b5034610235578060031936011261023557611192612fbc565b61119a612fe3565b6002546040516372c1cc1b60e11b815233600482015290602090829060249082906001600160a01b03165afa908115611046578291611286575b50611273576111e2336130b7565b6111eb33613131565b338152600660205260408120548015610b0e57338252600660205281604081205561121881600754612706565b600755815461123390829033906001600160a01b0316613471565b6040519081527f5efa67896a23b651b741b525caacba039c00ca7853be3de8eb1f4269e8669c5660203392a260015f5160206136c15f395f51905f525580f35b63191064f160e01b815233600452602490fd5b61129f915060203d6020116110b2576110a481836125e6565b5f6111d4565b5034610235578060031936011261023557602060ff5f5160206136a15f395f51905f5254166040519015158152f35b5034610235576060366003190112610235576112ee6124e9565b6024356044356001600160401b038111610ab0576113109036906004016125b9565b92909161131b612c19565b611323612fbc565b61132b612fe3565b6001600160a01b0382169384156114c85781156114b9578161134c8461254d565b54106114aa5761135b83613131565b8486526006602052604086205493858752600660205286604081205561138385600754612706565b600755611390838561338c565b6002546001600160a01b031691823b15610aa45760405163469753b960e11b81526001600160a01b0386166004820152602481018590529288908490604490829084905af19188831561149e57889361147f575b507ff2e63224ccf7cd50acf9f76815690ab6118a53b62778b751b86398d47143629592935061141a60405192839233978461272b565b0390a381611438575b8360015f5160206136c15f395f51905f525580f35b816114707f5efa67896a23b651b741b525caacba039c00ca7853be3de8eb1f4269e8669c569360209360018060a01b03885416613471565b604051908152a25f8080611423565b61148d9193508092946125e6565b61149a57818691886113e4565b8680fd5b604051903d90823e3d90fd5b63dabcaf6d60e01b8652600486fd5b630232ed2360e61b8652600486fd5b6339379d0760e01b8652600486fd5b50346102355780600319360112610235576020600754604051908152f35b50346102355780600319360112610235577f00000000000000000000000000000000000000000000000000000000000000006001600160a01b0316300361154d5760206040515f5160206136415f395f51905f528152f35b63703e46dd60e11b8152600490fd5b506040366003190112610235576115716124e9565b906024356001600160401b0381116111755736602382011215611175576115a290369060248160040135910161261b565b916001600160a01b037f00000000000000000000000000000000000000000000000000000000000000001630811490811561171b575b5061170c576115e5612c88565b6040516352d1902d60e01b8152926001600160a01b0382169190602085600481865afa809585966116d8575b5061162a57634c9c8ce360e01b84526004839052602484fd5b9091845f5160206136415f395f51905f5281036116c65750823b156116b4575f5160206136415f395f51905f5280546001600160a01b031916821790557fbc7cd75a20ee27fd9adebab32041f755214dbc6bffa90cc0225b39da2e5c2d3b8480a280511561169b5761039891613514565b5050346116a55780f35b63b398979f60e01b8152600490fd5b634c9c8ce360e01b8452600452602483fd5b632a87526960e21b8552600452602484fd5b9095506020813d602011611704575b816116f4602093836125e6565b81010312610aac5751945f611611565b3d91506116e7565b63703e46dd60e11b8252600482fd5b5f5160206136415f395f51905f52546001600160a01b0316141590505f6115d8565b50346102355760203660031901126102355760043561175a612fbc565b611762612fe3565b6002546040516372c1cc1b60e11b81523360048201526001600160a01b0390911690602081602481855afa90811561199d57849161197e575b5061196b57811561195c576117af336130b7565b604051630d371fb760e11b81523360048201526024810183905290602090829060449082905afa908115611951578391611932575b501561191a576117f333613131565b3382526006602052604082205490338352600660205282604081205561181b82600754612706565b600755611828813361338c565b60025483906001600160a01b0316803b156111755760405163469753b960e11b8152336004820152602481018490529082908290604490829084905af1801561104657611905575b505060405190815233907f08009940fb138ae33fbb70c10b643e840c71f1654344cc173975a815e117e68760203392a3806118bb575b5060015f5160206136c15f395f51905f525580f35b81546118d390829033906001600160a01b0316613471565b6040519081527f5efa67896a23b651b741b525caacba039c00ca7853be3de8eb1f4269e8669c5660203392a25f6118a6565b8161190f916125e6565b61105157825f611870565b631d36dbfb60e01b8252336004526024829052604482fd5b61194b915060203d6020116110b2576110a481836125e6565b5f6117e4565b6040513d85823e3d90fd5b630232ed2360e61b8352600483fd5b63191064f160e01b835233600452602483fd5b611997915060203d6020116110b2576110a481836125e6565b5f61179b565b6040513d86823e3d90fd5b5034611b90576040366003190112611b90576119c26124e9565b602435906119ce612baa565b6119d6612fbc565b6119de612fe3565b6001600160a01b038116908115611c54576002546040516372c1cc1b60e11b8152600481018490526001600160a01b0390911690602081602481855afa908115611b85575f91611c35575b50611c22578315611c13575f5160206136215f395f51905f5254690a968163f0a57b400000611a5886836126e6565b11611be95750611a67826130b7565b60405163eb69761160e01b81526001600160a01b03831660048201526024810185905290602090829060449082905afa908115611b85575f91611bca575b5015611bb357815f52600560205260405f20541580611ba2575b15611b9457600354825f52600560205260405f20555b611adf83826132c3565b6002546001600160a01b0316803b15611b9057604051635f8dead360e01b81526001600160a01b03929092166004830152602482018490525f908290604490829084905af18015611b8557611b70575b506040519182527f969cd201f68f120baff2bf3c59bc3b534434e08b69a71a14ab85cb79cd3b63e460203393a360015f5160206136c15f395f51905f525580f35b611b7d9193505f906125e6565b5f915f611b2f565b6040513d5f823e3d90fd5b5f80fd5b611b9d81613131565b611ad5565b50611bac8161254d565b5415611abf565b50631d36dbfb60e01b5f525f60045260245260445ffd5b611be3915060203d6020116110b2576110a481836125e6565b5f611aa5565b84611bf3916126e6565b6304ccbadd60e41b5f52600452690a968163f0a57b40000060245260445ffd5b630232ed2360e61b5f5260045ffd5b8263191064f160e01b5f5260045260245ffd5b611c4e915060203d6020116110b2576110a481836125e6565b5f611a29565b6339379d0760e01b5f5260045ffd5b34611b90575f366003190112611b9057611c7b612c88565b5f5160206136a15f395f51905f525460ff811615611cd25760ff19165f5160206136a15f395f51905f52557f5db9ee0a495bf2e6ff9c91a7834c1ba4fdd244a5e8aa4e537bd38aeae4b073aa6020604051338152a1005b638dfc202b60e01b5f5260045ffd5b34611b90576080366003190112611b9057611cfa6124e9565b611d026124ff565b90604435916064356001600160401b038111611b9057611d269036906004016125b9565b90611d2f612c19565b611d37612fbc565b611d3f612fe3565b6001600160a01b038416928315611c54576001600160a01b038116948515611c54578615611c135786611d718261254d565b5410611ed1576002546040516372c1cc1b60e11b8152600481018890526001600160a01b0390911690602081602481855afa908115611b85575f91611eb2575b50611e9f57611dbf826130b7565b611dc8836130b7565b604051633a576e8960e11b81526001600160a01b038381166004830152841660248201526044810189905290602090829060649082905afa908115611b85575f91611e80575b5015611e6957867f6a01d721b408d38e16345dc9fa6816599e5db672c3d6af6c86ade8994eaba2f1949392611e429261287e565b611e5360405192839233988461272b565b0390a460015f5160206136c15f395f51905f5255005b8585631d36dbfb60e01b5f5260045260245260445ffd5b611e99915060203d6020116110b2576110a481836125e6565b88611e0e565b8663191064f160e01b5f5260045260245ffd5b611ecb915060203d6020116110b2576110a481836125e6565b89611db1565b63dabcaf6d60e01b5f5260045ffd5b34611b90576040366003190112611b9057611ef96124ff565b336001600160a01b03821603611f1757611f159060043561301b565b005b63334bd91960e11b5f5260045ffd5b34611b90575f366003190112611b90576020604051690a968163f0a57b4000008152f35b34611b90576020366003190112611b9057600435611f66612baa565b611f6e612fbc565b611f76612fe3565b8015611c13575f5160206136215f395f51905f52548015611c1357611f9d600454836126e6565b90670de0b6b3a76400008202828104670de0b6b3a764000014831517156120eb57048015611c13575f600481815581546040516323b872dd60e01b8452339092523060245260448690526001600160a01b03169160209060648180865af19060015f51148216156120ca575b6040525f606052156120b8575061204d612045670de0b6b3a764000061203d5f5160206136215f395f51905f5254856126f3565b048094612706565b6004546126e6565b60045561206c61205f826003546126e6565b92836003556007546126e6565b600755604051928352602083015260408201527f57fee45ef71317e743874cd4183af85bab9709e0a45ed6f2a20e89e911a62b9860603392a260015f5160206136c15f395f51905f5255005b635274afe760e01b5f5260045260245ffd5b9060018115166120e257823b15153d15161690612009565b503d5f823e3d90fd5b634e487b7160e01b5f52601160045260245ffd5b34611b90575f366003190112611b9057602060405160128152f35b34611b90576040366003190112611b9057611f156004356121396124ff565b9061215f61038e825f525f5160206136815f395f51905f52602052600160405f20015490565b612f2b565b34611b90576020366003190112611b90576020610d546004355f525f5160206136815f395f51905f52602052600160405f20015490565b34611b90576060366003190112611b90576121b46124e9565b6121bc6124ff565b604435906121c983612515565b335f9081526020919091526040902054925f1984106121ed575b6104ea935061287e565b828410612258576001600160a01b03811615612245573315612232576104ea9361221682612515565b60018060a01b0333165f526020528360405f20910390556121e3565b634a1406b160e11b5f525f60045260245ffd5b63e602df0560e01b5f525f60045260245ffd5b8284637dc7a0d960e11b5f523360045260245260445260645ffd5b34611b90575f366003190112611b905760205f5160206136215f395f51905f5254604051908152f35b34611b90575f366003190112611b905760206040517f20b5f7ac978e5d6199de06401411960dfa81d2f762655f6206bdc61d46fc19e68152f35b34611b90575f366003190112611b90576001546040516001600160a01b039091168152602090f35b34611b90576040366003190112611b90576123176124e9565b602435903315612245576001600160a01b03169081156122325761233a33612515565b825f526020528060405f20556040519081527f8c5be1e5ebec7d5bd14f71427d1e84f3dd0314c0f7b2291e5b200ac8c7c3b92560203392a3602060405160018152f35b34611b90575f366003190112611b90576040515f5f5160206135c15f395f51905f52546123a9816126ae565b808452906001811690811561243b57506001146123d1575b6104bf83610b90818503826125e6565b5f5160206135c15f395f51905f525f9081527f2ae08a8e29253f69ac5d979a101956ab8f8d9d7ded63fa7a83b16fc47648eab0939250905b80821061242157509091508101602001610b906123c1565b919260018160209254838588010152019101909291612409565b60ff191660208086019190915291151560051b84019091019150610b9090506123c1565b34611b90576020366003190112611b905760043563ffffffff60e01b8116809103611b9057602090637965db0b60e01b81149081156124a4575b506040519015158152f35b6301ffc9a760e01b14905082612499565b34611b90576020366003190112611b90576020906001600160a01b036124d96124e9565b165f526005825260405f20548152f35b600435906001600160a01b0382168203611b9057565b602435906001600160a01b0382168203611b9057565b6001600160a01b03165f9081527f52c63247e1f47db19d5ce0460030c497f067ca4cebf71ba98eeadabe20bace016020526040902090565b6001600160a01b03165f9081525f5160206135e15f395f51905f526020526040902090565b9190916020815282518060208301525f5b8181106125a3575060409293505f838284010152601f8019910116010190565b8060208092870101516040828601015201612583565b9181601f84011215611b90578235916001600160401b038311611b905760208381860195010111611b9057565b90601f801991011681019081106001600160401b0382111761260757604052565b634e487b7160e01b5f52604160045260245ffd5b9291926001600160401b0382116126075760405191612644601f8201601f1916602001846125e6565b829481845281830111611b90578281602093845f960137010152565b9181601f84011215611b90578235916001600160401b038311611b90576020808501948460051b010111611b9057565b9080601f83011215611b90578160206126ab9335910161261b565b90565b90600182811c921680156126dc575b60208310146126c857565b634e487b7160e01b5f52602260045260245ffd5b91607f16916126bd565b919082018092116120eb57565b818102929181159184041417156120eb57565b919082039182116120eb57565b90816020910312611b9057518015158103611b905790565b91926060938192845260406020850152816040850152848401375f828201840152601f01601f1916010190565b91908110156127685760051b0190565b634e487b7160e01b5f52603260045260245ffd5b6001600160a01b03165f8181525f5160206135e15f395f51905f5260209081526040808320546006909252909120549181156127ee575f5260056020526127c960405f2054600354612706565b9081156127ee576127e76126ab9392670de0b6b3a7640000926126f3565b04906126e6565b505090565b6001600160a01b03165f8181525f5160206135e15f395f51905f526020526040902054801561286e57815f52600560205261283460405f2054600354612706565b801561285d576127e7670de0b6b3a7640000916126ab945f52600660205260405f2054936126f3565b50505f52600660205260405f205490565b505f52600660205260405f205490565b90916001600160a01b0382168015612b97576001600160a01b038416908115612b84576128a9612fbc565b81811480612b7c575b612b6d57308214612b6d576002546040516372c1cc1b60e11b8152600481018390526001600160a01b0390911690602081602481855afa908115611b85575f91612b4e575b50612b3b576040516372c1cc1b60e11b815260048101849052602081602481855afa908115611b85575f91612b1c575b50611c2257612935856130b7565b61293e866130b7565b604051633a576e8960e11b81526001600160a01b038681166004830152871660248201526044810185905290602090829060649082905afa908115611b85575f91612afd575b5015612ae85761299384613131565b61299c85613131565b80612a8d576129b9835f5160206136215f395f51905f52546126e6565b5f5160206136215f395f51905f52555b81612a6a57825f5160206136215f395f51905f5254035f5160206136215f395f51905f52555b5f5160206136615f395f51905f526020604051858152a36002546001600160a01b0316803b15611b90576040516322ebca6d60e21b81526001600160a01b03938416600482015293909216602484015260448301525f908290606490829084905af18015611b8557612a5e5750565b5f612a68916125e6565b565b815f525f5160206135e15f395f51905f5260205260405f208381540190556129ef565b805f525f5160206135e15f395f51905f5260205260405f2054838110612ace578390825f525f5160206135e15f395f51905f526020520360405f20556129c9565b915063391434e360e21b5f5260045260245260445260645ffd5b631d36dbfb60e01b5f5260045260245260445ffd5b612b16915060203d6020116110b2576110a481836125e6565b5f612984565b612b35915060203d6020116110b2576110a481836125e6565b5f612927565b5063191064f160e01b5f5260045260245ffd5b612b67915060203d6020116110b2576110a481836125e6565b5f6128f7565b63e7225f5360e01b5f5260045ffd5b5060016128b2565b63ec442f0560e01b5f525f60045260245ffd5b634b637e8f60e11b5f525f60045260245ffd5b335f9081527fecfb03a241cc67499591701273c9840824101e710aea92d3ca0339671f5c64c0602052604090205460ff1615612be257565b63e2517d3f60e01b5f52336004527f114e74f6ea3bd819998f78687bfcb11b140da08e9b7d222fa9c1f1ba1f2aa12260245260445ffd5b335f9081527fee216a338b49dac20876e0a71bbec28b8c271dac7953d46a3d0077609854d7ef602052604090205460ff1615612c5157565b63e2517d3f60e01b5f52336004527f20b5f7ac978e5d6199de06401411960dfa81d2f762655f6206bdc61d46fc19e660245260445ffd5b335f9081527fb7db2dd08fcb62d0c9e08c51941cae53c267786a0b75803fb7960902fc8ef97d602052604090205460ff1615612cc057565b63e2517d3f60e01b5f52336004525f60245260445ffd5b5f8181525f5160206136815f395f51905f526020908152604080832033845290915290205460ff1615612d075750565b63e2517d3f60e01b5f523360045260245260445ffd5b6001600160a01b0381165f9081527fb7db2dd08fcb62d0c9e08c51941cae53c267786a0b75803fb7960902fc8ef97d602052604090205460ff16612db4576001600160a01b03165f8181527fb7db2dd08fcb62d0c9e08c51941cae53c267786a0b75803fb7960902fc8ef97d60205260408120805460ff191660011790553391905f5160206135a15f395f51905f528180a4600190565b505f90565b6001600160a01b0381165f9081527fecfb03a241cc67499591701273c9840824101e710aea92d3ca0339671f5c64c0602052604090205460ff16612db4576001600160a01b03165f8181527fecfb03a241cc67499591701273c9840824101e710aea92d3ca0339671f5c64c060205260408120805460ff191660011790553391907f114e74f6ea3bd819998f78687bfcb11b140da08e9b7d222fa9c1f1ba1f2aa122905f5160206135a15f395f51905f529080a4600190565b6001600160a01b0381165f9081527fee216a338b49dac20876e0a71bbec28b8c271dac7953d46a3d0077609854d7ef602052604090205460ff16612db4576001600160a01b03165f8181527fee216a338b49dac20876e0a71bbec28b8c271dac7953d46a3d0077609854d7ef60205260408120805460ff191660011790553391907f20b5f7ac978e5d6199de06401411960dfa81d2f762655f6206bdc61d46fc19e6905f5160206135a15f395f51905f529080a4600190565b5f8181525f5160206136815f395f51905f52602090815260408083206001600160a01b038616845290915290205460ff16612fb6575f8181525f5160206136815f395f51905f52602090815260408083206001600160a01b0395909516808452949091528120805460ff19166001179055339291905f5160206135a15f395f51905f529080a4600190565b50505f90565b60ff5f5160206136a15f395f51905f525416612fd457565b63d93c066560e01b5f5260045ffd5b60025f5160206136c15f395f51905f52541461300c5760025f5160206136c15f395f51905f5255565b633ee5aeb560e01b5f5260045ffd5b5f8181525f5160206136815f395f51905f52602090815260408083206001600160a01b038616845290915290205460ff1615612fb6575f8181525f5160206136815f395f51905f52602090815260408083206001600160a01b0395909516808452949091528120805460ff19169055339291907ff6391f5c32d9c69d2a47ea670b442974b53935d1edc7fd64eb21e047a839171b9080a4600190565b60015460405163b9209e3360e01b81526001600160a01b039283166004820181905292909160209183916024918391165afa908115611b85575f91613112575b50156131005750565b630319b0f360e51b5f5260045260245ffd5b61312b915060203d6020116110b2576110a481836125e6565b5f6130f7565b6001600160a01b031680156132c057805f52600560205260405f2054815f525f5160206135e15f395f51905f5260205260405f205490828115613214575081156131a25761318190600354612706565b801561320f5761319b670de0b6b3a76400009184936126f3565b04806131b6575b5050600354905f52600560205260405f2055565b60207fcf93d0fe7dbf55165720beb87a257ab15f2fb42115a04e0e6cc4b65bd0362dec91835f526006825260405f206131f08282546126e6565b90556131fe816007546126e6565b600755604051908152a2805f6131a2565b505050565b91905060035490811515806132b7575b61323e575b505050600354905f52600560205260405f2055565b670de0b6b3a764000091613251916126f3565b048061325e575b80613229565b60207fcf93d0fe7dbf55165720beb87a257ab15f2fb42115a04e0e6cc4b65bd0362dec91835f526006825260405f206132988282546126e6565b90556132a6816007546126e6565b600755604051908152a2805f613258565b50801515613224565b50565b6001600160a01b0316908115612b84576132db612fbc565b308214612b6d575f5160206136615f395f51905f5260205f92848452600582526040842054158061336d575b613359575b613324815f5160206136215f395f51905f52546126e6565b5f5160206136215f395f51905f52558484525f5160206135e15f395f51905f52825260408420818154019055604051908152a3565b60035485855260058352604085205561330c565b508484525f5160206135e15f395f51905f528252604084205415613307565b9091906001600160a01b03811615612b97576133a6612fbc565b3015612b6d576001600160a01b03168061341e575f5160206136615f395f51905f526020846133e55f95965f5160206136215f395f51905f52546126e6565b5f5160206136215f395f51905f52555b805f5160206136215f395f51905f5254035f5160206136215f395f51905f5255604051908152a3565b805f525f5160206135e15f395f51905f5260205260405f2054838110612ace576020845f94955f5160206136615f395f51905f52938587525f5160206135e15f395f51905f5284520360408620556133f5565b916040519163a9059cbb60e01b5f5260018060a01b031660045260245260205f60448180865af19060015f51148216156134d1575b604052156134b15750565b635274afe760e01b5f9081526001600160a01b0391909116600452602490fd5b9060018115166120e257823b15153d151616906134a6565b60ff5f5160206136e15f395f51905f525460401c161561350557565b631afcd79f60e31b5f5260045ffd5b905f8091602081519101845af4808061358d575b156135485750506040513d81523d5f602083013e60203d82010160405290565b1561356d57639996b31560e01b5f9081526001600160a01b0391909116600452602490fd5b3d1561357e576040513d5f823e3d90fd5b63d6bda27560e01b5f5260045ffd5b503d1515806135285750813b151561352856fe2f8788117e7eff1d82e926ec794901d17c78024a50270940304540a733656f0d52c63247e1f47db19d5ce0460030c497f067ca4cebf71ba98eeadabe20bace0352c63247e1f47db19d5ce0460030c497f067ca4cebf71ba98eeadabe20bace0052c63247e1f47db19d5ce0460030c497f067ca4cebf71ba98eeadabe20bace0452c63247e1f47db19d5ce0460030c497f067ca4cebf71ba98eeadabe20bace02360894a13ba1a3210667c828492db98dca3e2076cc3735a920a3ca505d382bbcddf252ad1be2c89b69c2b068fc378daa952ba7f163c4a11628f55a4df523b3ef02dd7bc7dec4dceedda775e58dd541e08a116c6c53815c0bd028192f7b626800cd5ed15c6e187e77e9aee88184c21f4f2182ab5827cb3b7e07fbedcd63f033009b779b17422d0df92223018b32b4d1fa46e071723d6817e2486d003becc55f00f0c57e16840df040f15088dc2f81fe391c3923bec73e23a9662efc9c229c6a00a26469706673582212201e05aa5a21cebc29fc8d14694cd788bfefd095618b222b6ee8c17d5b355f07e064736f6c634300081c0033f0c57e16840df040f15088dc2f81fe391c3923bec73e23a9662efc9c229c6a00",
        "nonce": "0x8",
        "chainId": "0xaa36a7"
      },
      "additionalContracts": [],
      "isFixedGasLimit": false
    },
    {
      "hash": "0x9ef941eb8c432645ba012c335da08e9e38c3f17859b8eff427c3ccf778b13e61",
      "transactionType": "CREATE",
      "contractName": "TimelockController",
      "contractAddress": "0xc51aaccb820dc42d1b57b729a0abd9700819643d",
      "function": null,
      "arguments": [
        "172800",
        "[0x9e3f8146d3FA4B37033e73BFC95728f5B65B2473]",
        "[0x9e3f8146d3FA4B37033e73BFC95728f5B65B2473]",
        "0x9e3f8146d3FA4B37033e73BFC95728f5B65B2473"
      ],
      "transaction": {
        "from": "0x9e3f8146d3fa4b37033e73bfc95728f5b65b2473",
        "to": null,
        "gas": "0x1bcb33",
        "value": "0x0",
        "input": "0x60806040523461016657611a61803803806100198161016a565b92833981019060808183031261016657805160208201519091906001600160401b038111610166578361004d9183016101b7565b604082015190936001600160401b0382116101665761007360609161007a9385016101b7565b92016101a3565b61008330610249565b506001600160a01b038116610156575b505f5b83518110156100e0576001906100be6001600160a01b036100b78388610221565b51166102bf565b506100d9828060a01b036100d28388610221565b5116610352565b5001610096565b50905f5b82518110156101135760019061010c6001600160a01b036101058387610221565b51166103e5565b50016100e4565b7f11c24f4ead16507c69ac467fbd5e4eed5fb5c699626d2cc6d66421df253886d5604083806002558151905f82526020820152a160405161154890816104798239f35b61015f90610249565b505f610093565b5f80fd5b6040519190601f01601f191682016001600160401b0381118382101761018f57604052565b634e487b7160e01b5f52604160045260245ffd5b51906001600160a01b038216820361016657565b9080601f83011215610166578151916001600160401b03831161018f578260051b906020806101e781850161016a565b80968152019282010192831161016657602001905b8282106102095750505090565b60208091610216846101a3565b8152019101906101fc565b80518210156102355760209160051b010190565b634e487b7160e01b5f52603260045260245ffd5b6001600160a01b0381165f9081525f516020611a415f395f51905f52602052604090205460ff166102ba576001600160a01b03165f8181525f516020611a415f395f51905f5260205260408120805460ff191660011790553391905f5160206119c15f395f51905f528180a4600190565b505f90565b6001600160a01b0381165f9081525f5160206119e15f395f51905f52602052604090205460ff166102ba576001600160a01b03165f8181525f5160206119e15f395f51905f5260205260408120805460ff191660011790553391907fb09aa5aeb3702cfd50b6b62bc4532604938f21248a27a1d5ca736082b6819cc1905f5160206119c15f395f51905f529080a4600190565b6001600160a01b0381165f9081525f516020611a215f395f51905f52602052604090205460ff166102ba576001600160a01b03165f8181525f516020611a215f395f51905f5260205260408120805460ff191660011790553391907ffd643c72710c63c0180259aba6b2d05451e3591a24e58b62239378085726f783905f5160206119c15f395f51905f529080a4600190565b6001600160a01b0381165f9081525f516020611a015f395f51905f52602052604090205460ff166102ba576001600160a01b03165f8181525f516020611a015f395f51905f5260205260408120805460ff191660011790553391907fd8aa0f3194971a2a116679f7c2090f6939c8d4e01a2a8d7e41d55e5351469e63905f5160206119c15f395f51905f529080a460019056fe6080604052600436101561001a575b3615610018575f80fd5b005b5f3560e01c806301d5062a14610b2057806301ffc9a714610ab057806307bd026514610a76578063134008d3146109c357806313bc9f20146109a5578063150b7a0214610950578063248a9ca3146109265780632ab0f529146109085780632f2ff15d146108cb57806331d50750146108ad57806336568abe14610869578063584b153e1461084157806364d62353146107dc5780637958004c146107995780638065657f1461077a5780638f2a0bb0146105f55780638f61f4f5146105bb57806391d1485414610573578063a217fddf14610559578063b08e51c01461051f578063b1c5f427146104f5578063bc197c8114610460578063c4d252f514610382578063d45c443514610358578063d547741f14610314578063e38335e5146101c8578063f23a6e61146101735763f27a0c920361000e573461016f575f36600319011261016f576020600254604051908152f35b5f80fd5b3461016f5760a036600319011261016f5761018c610bcb565b50610195610be1565b506084356001600160401b03811161016f576101b5903690600401610cc2565b5060405163f23a6e6160e01b8152602090f35b6101d136610d38565b5f80527fdae2aa361dfd1ca020a396615627d436107c35eff9fe7738a3512819782d70696020527f5ba6852781629bcdcd4bdaa6de76d786f1c64b16acdac474e55bebc0ea1579515492979196919593949260ff1615610306575b8282148015906102fc575b6102e15761024e61025591888a888789888d611002565b968761131b565b5f5b81811061026757610018876113c6565b8080887fc2617efa69bab66782fa219543714338489c4e9e178271560a91b82c3f612b5888886102d86102bf8f986001998f828e6102b28f836102ad916102b896610f89565b610fad565b97610f89565b3595610fc1565b906102cc82828787611373565b60405194859485610e65565b0390a301610257565b50869063ffb0321160e01b5f5260045260245260445260645ffd5b5087821415610237565b61030f3361124d565b61022c565b3461016f57604036600319011261016f57610018600435610333610be1565b9061035361034c825f525f602052600160405f20015490565b33906112d3565b61146c565b3461016f57602036600319011261016f576004355f526001602052602060405f2054604051908152f35b3461016f57602036600319011261016f57335f9081527fc3ad33e20b0c56a223ad5104fff154aa010f8715b9c981fd38fdc60a4d1a52fb60205260409020546004359060ff1615610429576103d681610ed3565b1561040f57805f5260016020525f60408120557fbaa1eb22f2a492ba1a5fea61b8df4d27c6c8b5f3971e63bb58fa14ff72eedb705f80a2005b635ead8eb560e01b5f52600452600460021760245260445ffd5b63e2517d3f60e01b5f52336004527ffd643c72710c63c0180259aba6b2d05451e3591a24e58b62239378085726f78360245260445ffd5b3461016f5760a036600319011261016f57610479610bcb565b50610482610be1565b506044356001600160401b03811161016f576104a2903690600401610da6565b506064356001600160401b03811161016f576104c2903690600401610da6565b506084356001600160401b03811161016f576104e2903690600401610cc2565b5060405163bc197c8160e01b8152602090f35b3461016f57602061051761050836610d38565b96959095949194939293611002565b604051908152f35b3461016f575f36600319011261016f5760206040517ffd643c72710c63c0180259aba6b2d05451e3591a24e58b62239378085726f7838152f35b3461016f575f36600319011261016f5760206040515f8152f35b3461016f57604036600319011261016f5761058c610be1565b6004355f525f60205260405f209060018060a01b03165f52602052602060ff60405f2054166040519015158152f35b3461016f575f36600319011261016f5760206040517fb09aa5aeb3702cfd50b6b62bc4532604938f21248a27a1d5ca736082b6819cc18152f35b3461016f5760c036600319011261016f576004356001600160401b03811161016f57610625903690600401610d08565b906024356001600160401b03811161016f57610645903690600401610d08565b6044929192356001600160401b03811161016f57610667903690600401610d08565b9390916064356084359560a4359261067e336111c7565b808914801590610770575b6107565761069d88848489858a8f8e611002565b986106a8858b611154565b895f5b8281106106e8575089806106bb57005b60207f20fda5fd27a1ea7bf5b9567f143ac5470bb059374a27e8f67cb44f946f6d038791604051908152a2005b806001927f4cf4410cc57040e44862ef0f45f3dd5a5e02db8eb8add648d4b0e236f1d07dca8b8b61074b8f8c61073e8f928e6107378f8f906107316102ad8f8097948195610f89565b99610f89565b3597610fc1565b9060405196879687610e2d565b0390a3018a906106ab565b908863ffb0321160e01b5f5260045260245260445260645ffd5b5081891415610689565b3461016f57602061051761078d36610c24565b94939093929192610f34565b3461016f57602036600319011261016f576107b5600435610efc565b60405160048210156107c8576020918152f35b634e487b7160e01b5f52602160045260245ffd5b3461016f57602036600319011261016f5760043530330361082e577f11c24f4ead16507c69ac467fbd5e4eed5fb5c699626d2cc6d66421df253886d560406002548151908152836020820152a1600255005b63e2850c5960e01b5f523360045260245ffd5b3461016f57602036600319011261016f57602061085f600435610ed3565b6040519015158152f35b3461016f57604036600319011261016f57610882610be1565b336001600160a01b0382160361089e576100189060043561146c565b63334bd91960e11b5f5260045ffd5b3461016f57602036600319011261016f57602061085f600435610ebc565b3461016f57604036600319011261016f576100186004356108ea610be1565b9061090361034c825f525f602052600160405f20015490565b6113e4565b3461016f57602036600319011261016f57602061085f600435610ea4565b3461016f57602036600319011261016f5760206105176004355f525f602052600160405f20015490565b3461016f57608036600319011261016f57610969610bcb565b50610972610be1565b506064356001600160401b03811161016f57610992903690600401610cc2565b50604051630a85bd0160e11b8152602090f35b3461016f57602036600319011261016f57602061085f600435610e8c565b610018610a545f610a607fc2617efa69bab66782fa219543714338489c4e9e178271560a91b82c3f612b58610a4b6109fa36610c24565b7fd8aa0f3194971a2a116679f7c2090f6939c8d4e01a2a8d7e41d55e5351469e638a9995979299949394528960205260408a208a805260205260ff60408b20541615610a68575b8884848989610f34565b9889978861131b565b6102cc82828787611373565b0390a36113c6565b610a713361124d565b610a41565b3461016f575f36600319011261016f5760206040517fd8aa0f3194971a2a116679f7c2090f6939c8d4e01a2a8d7e41d55e5351469e638152f35b3461016f57602036600319011261016f5760043563ffffffff60e01b811680910361016f57602090630271189760e51b8114908115610af5575b506040519015158152f35b637965db0b60e01b811491508115610b0f575b5082610aea565b6301ffc9a760e01b14905082610b08565b3461016f5760c036600319011261016f57610b39610bcb565b602435906044356001600160401b03811161016f577f4cf4410cc57040e44862ef0f45f3dd5a5e02db8eb8add648d4b0e236f1d07dca92610b7f5f923690600401610bf7565b94909160643594610bc16084359660a43590610b9a336111c7565b610ba889828c8a8989610f34565b998a97610bb5848a611154565b60405196879687610e2d565b0390a3806106bb57005b600435906001600160a01b038216820361016f57565b602435906001600160a01b038216820361016f57565b9181601f8401121561016f578235916001600160401b03831161016f576020838186019501011161016f57565b60a060031982011261016f576004356001600160a01b038116810361016f579160243591604435906001600160401b03821161016f57610c6691600401610bf7565b90916064359060843590565b90601f801991011681019081106001600160401b03821117610c9357604052565b634e487b7160e01b5f52604160045260245ffd5b6001600160401b038111610c9357601f01601f191660200190565b81601f8201121561016f57803590610cd982610ca7565b92610ce76040519485610c72565b8284526020838301011161016f57815f926020809301838601378301015290565b9181601f8401121561016f578235916001600160401b03831161016f576020808501948460051b01011161016f57565b60a060031982011261016f576004356001600160401b03811161016f5781610d6291600401610d08565b929092916024356001600160401b03811161016f5781610d8491600401610d08565b92909291604435906001600160401b03821161016f57610c6691600401610d08565b9080601f8301121561016f578135916001600160401b038311610c93578260051b9060405193610dd96020840186610c72565b845260208085019282010192831161016f57602001905b828210610dfd5750505090565b8135815260209182019101610df0565b908060209392818452848401375f828201840152601f01601f1916010190565b929093610e5b926080959897969860018060a01b03168552602085015260a0604085015260a0840191610e0d565b9460608201520152565b610e89949260609260018060a01b0316825260208201528160408201520191610e0d565b90565b610e9590610efc565b60048110156107c85760021490565b610ead90610efc565b60048110156107c85760031490565b610ec590610efc565b60048110156107c857151590565b610edc90610efc565b60048110156107c85760018114908115610ef4575090565b600291501490565b5f52600160205260405f205480155f14610f1557505f90565b60018103610f235750600390565b421015610f2f57600190565b600290565b94610f6a610f8394959293604051968795602087019960018060a01b03168a52604087015260a0606087015260c0860191610e0d565b91608084015260a083015203601f198101835282610c72565b51902090565b9190811015610f995760051b0190565b634e487b7160e01b5f52603260045260245ffd5b356001600160a01b038116810361016f5790565b9190811015610f995760051b81013590601e198136030182121561016f5701908135916001600160401b03831161016f57602001823603811361016f579190565b9693949190969592956040519660208801988060c08a0160a08c525260e0890192905f905b80821061111e57505050878203601f190160408901528082526001600160fb1b03811161016f579087959394929160051b8092602083013701848103606086015260208101849052600584901b8101604090810194908201915f90889036829003601e1901905b8484106110b857505050505050610f839450608084015260a083015203601f198101835282610c72565b91939597909294969850601f19601f198383030101875289358381121561016f57840190602082359201916001600160401b03811161016f57803603831361016f5761110a6020928392600195610e0d565b9b0197019401918a9896999795939161108e565b91939091908435906001600160a01b038216820361016f576001600160a01b039091168152602090810194019160010190611027565b9061115e82610ebc565b6111af576002548082106111995750420190814211611185575f52600160205260405f2055565b634e487b7160e01b5f52601160045260245ffd5b90635433660960e01b5f5260045260245260445ffd5b50635ead8eb560e01b5f52600452600160245260445ffd5b6001600160a01b0381165f9081527f3412d5605ac6cd444957cedb533e5dacad6378b4bc819ebe3652188a665066d5602052604090205460ff16156112095750565b63e2517d3f60e01b5f9081526001600160a01b03919091166004527fb09aa5aeb3702cfd50b6b62bc4532604938f21248a27a1d5ca736082b6819cc1602452604490fd5b6001600160a01b0381165f9081527fdae2aa361dfd1ca020a396615627d436107c35eff9fe7738a3512819782d7069602052604090205460ff161561128f5750565b63e2517d3f60e01b5f9081526001600160a01b03919091166004527fd8aa0f3194971a2a116679f7c2090f6939c8d4e01a2a8d7e41d55e5351469e63602452604490fd5b90815f525f60205260405f2060018060a01b0382165f5260205260ff60405f205416156112fe575050565b63e2517d3f60e01b5f5260018060a01b031660045260245260445ffd5b61132481610e8c565b1561135c57508015158061134c575b61133a5750565b63121534c360e31b5f5260045260245ffd5b5061135681610ea4565b15611333565b635ead8eb560e01b5f52600452600460245260445ffd5b6113bb935f93928493826040519384928337810185815203925af13d156113be573d9061139f82610ca7565b916113ad6040519384610c72565b82523d5f602084013e6114ec565b50565b6060906114ec565b6113cf81610e8c565b1561135c575f526001602052600160405f2055565b5f818152602081815260408083206001600160a01b038616845290915290205460ff16611466575f818152602081815260408083206001600160a01b0395909516808452949091528120805460ff19166001179055339291907f2f8788117e7eff1d82e926ec794901d17c78024a50270940304540a733656f0d9080a4600190565b50505f90565b5f818152602081815260408083206001600160a01b038616845290915290205460ff1615611466575f818152602081815260408083206001600160a01b0395909516808452949091528120805460ff19169055339291907ff6391f5c32d9c69d2a47ea670b442974b53935d1edc7fd64eb21e047a839171b9080a4600190565b156114f45790565b80511561150357602081519101fd5b63d6bda27560e01b5f5260045ffdfea26469706673582212203a0ca17f621814285147ff1bb5b175d12eb7c0433084dda7d4c5396cc5829bcc64736f6c634300081c00332f8788117e7eff1d82e926ec794901d17c78024a50270940304540a733656f0d3412d5605ac6cd444957cedb533e5dacad6378b4bc819ebe3652188a665066d5dae2aa361dfd1ca020a396615627d436107c35eff9fe7738a3512819782d7069c3ad33e20b0c56a223ad5104fff154aa010f8715b9c981fd38fdc60a4d1a52fbad3228b676f7d3cd4284a5443f17f1962b36e491b30a40b2405849e597ba5fb5000000000000000000000000000000000000000000000000000000000002a300000000000000000000000000000000000000000000000000000000000000008000000000000000000000000000000000000000000000000000000000000000c00000000000000000000000009e3f8146d3fa4b37033e73bfc95728f5b65b247300000000000000000000000000000000000000000000000000000000000000010000000000000000000000009e3f8146d3fa4b37033e73bfc95728f5b65b247300000000000000000000000000000000000000000000000000000000000000010000000000000000000000009e3f8146d3fa4b37033e73bfc95728f5b65b2473",
        "nonce": "0x9",
        "chainId": "0xaa36a7"
      },
      "additionalContracts": [],
      "isFixedGasLimit": false
    },
    {
      "hash": "0xe47e4fcfc4cb2e98bd69a0785288bd0b52e7c91982710de4b456e68e1d23f563",
      "transactionType": "CREATE",
      "contractName": "ERC1967Proxy",
      "contractAddress": "0x92a65ae2f3fbde6e917cfaf6a1c69fd23ba102c0",
      "function": null,
      "arguments": [
        "0x9BB17957fc8A62B6c139ECcC8df56540Cdb5B200",
        "0xc4d66de80000000000000000000000009e3f8146d3fa4b37033e73bfc95728f5b65b2473"
      ],
      "transaction": {
        "from": "0x9e3f8146d3fa4b37033e73bfc95728f5b65b2473",
        "to": null,
        "gas": "0x3d109",
        "value": "0x0",
        "input": "0x60806040526102ba8038038061001481610186565b928339810160408282031261016e578151916001600160a01b0383169081840361016e576020810151906001600160401b03821161016e570182601f8201121561016e578051906001600160401b0382116101725761007c601f8301601f1916602001610186565b938285526020838301011161016e575f5b82811061015957505060205f918401015281511561014a57823b15610138577f360894a13ba1a3210667c828492db98dca3e2076cc3735a920a3ca505d382bbc80546001600160a01b031916821790557fbc7cd75a20ee27fd9adebab32041f755214dbc6bffa90cc0225b39da2e5c2d3b5f80a280511561012157610111916101ab565b505b604051608290816102388239f35b505034156101135763b398979f60e01b5f5260045ffd5b634c9c8ce360e01b5f5260045260245ffd5b6330a289cf60e21b5f5260045ffd5b8060208092840101518282880101520161008d565b5f80fd5b634e487b7160e01b5f52604160045260245ffd5b6040519190601f01601f191682016001600160401b0381118382101761017257604052565b905f8091602081519101845af48080610224575b156101df5750506040513d81523d5f602083013e60203d82010160405290565b1561020457639996b31560e01b5f9081526001600160a01b0391909116600452602490fd5b3d15610215576040513d5f823e3d90fd5b63d6bda27560e01b5f5260045ffd5b503d1515806101bf5750813b15156101bf56fe60806040527f360894a13ba1a3210667c828492db98dca3e2076cc3735a920a3ca505d382bbc545f9081906001600160a01b0316368280378136915af43d5f803e156048573d5ff35b3d5ffdfea2646970667358221220d752f5cce5780e13049e09a0dfa3471aebeb75b297c18ee55efaa9848ef2f3c264736f6c634300081c00330000000000000000000000009bb17957fc8a62b6c139eccc8df56540cdb5b20000000000000000000000000000000000000000000000000000000000000000400000000000000000000000000000000000000000000000000000000000000024c4d66de80000000000000000000000009e3f8146d3fa4b37033e73bfc95728f5b65b247300000000000000000000000000000000000000000000000000000000",
        "nonce": "0xa",
        "chainId": "0xaa36a7"
      },
      "additionalContracts": [],
      "isFixedGasLimit": false
    },
    {
      "hash": "0xcf9f42e6c6bf2b31b2a75809e377d856196234ed40fee31eb7c47197ba8d145f",
      "transactionType": "CREATE",
      "contractName": "ERC1967Proxy",
      "contractAddress": "0x2a6847579906baa18656b43d587c33d7521c893b",
      "function": null,
      "arguments": [
        "0xA66BcFc4AE9B856C6A9594EeC3Ad37f3c03AF8Df",
        "0x485cc9550000000000000000000000009e3f8146d3fa4b37033e73bfc95728f5b65b247300000000000000000000000092a65ae2f3fbde6e917cfaf6a1c69fd23ba102c0"
      ],
      "transaction": {
        "from": "0x9e3f8146d3fa4b37033e73bfc95728f5b65b2473",
        "to": null,
        "gas": "0x4421d",
        "value": "0x0",
        "input": "0x60806040526102ba8038038061001481610186565b928339810160408282031261016e578151916001600160a01b0383169081840361016e576020810151906001600160401b03821161016e570182601f8201121561016e578051906001600160401b0382116101725761007c601f8301601f1916602001610186565b938285526020838301011161016e575f5b82811061015957505060205f918401015281511561014a57823b15610138577f360894a13ba1a3210667c828492db98dca3e2076cc3735a920a3ca505d382bbc80546001600160a01b031916821790557fbc7cd75a20ee27fd9adebab32041f755214dbc6bffa90cc0225b39da2e5c2d3b5f80a280511561012157610111916101ab565b505b604051608290816102388239f35b505034156101135763b398979f60e01b5f5260045ffd5b634c9c8ce360e01b5f5260045260245ffd5b6330a289cf60e21b5f5260045ffd5b8060208092840101518282880101520161008d565b5f80fd5b634e487b7160e01b5f52604160045260245ffd5b6040519190601f01601f191682016001600160401b0381118382101761017257604052565b905f8091602081519101845af48080610224575b156101df5750506040513d81523d5f602083013e60203d82010160405290565b1561020457639996b31560e01b5f9081526001600160a01b0391909116600452602490fd5b3d15610215576040513d5f823e3d90fd5b63d6bda27560e01b5f5260045ffd5b503d1515806101bf5750813b15156101bf56fe60806040527f360894a13ba1a3210667c828492db98dca3e2076cc3735a920a3ca505d382bbc545f9081906001600160a01b0316368280378136915af43d5f803e156048573d5ff35b3d5ffdfea2646970667358221220d752f5cce5780e13049e09a0dfa3471aebeb75b297c18ee55efaa9848ef2f3c264736f6c634300081c0033000000000000000000000000a66bcfc4ae9b856c6a9594eec3ad37f3c03af8df00000000000000000000000000000000000000000000000000000000000000400000000000000000000000000000000000000000000000000000000000000044485cc9550000000000000000000000009e3f8146d3fa4b37033e73bfc95728f5b65b247300000000000000000000000092a65ae2f3fbde6e917cfaf6a1c69fd23ba102c000000000000000000000000000000000000000000000000000000000",
        "nonce": "0xb",
        "chainId": "0xaa36a7"
      },
      "additionalContracts": [],
      "isFixedGasLimit": false
    },
    {
      "hash": "0xc38aaca3f49a0e692d76c4aec8ad75dc95d4c659b7f3ca915c265eb2bcb43543",
      "transactionType": "CREATE",
      "contractName": "ERC1967Proxy",
      "contractAddress": "0x8dba9525dd70dbfba528cde818373df24c09a189",
      "function": null,
      "arguments": [
        "0x54d3853ad3C283aC12cbfa2fF8FF0a72B27B49Be",
        "0xa5b81fdf0000000000000000000000001c7d4b196cb0c7b01d743fbc6116a902379c723800000000000000000000000092a65ae2f3fbde6e917cfaf6a1c69fd23ba102c00000000000000000000000002a6847579906baa18656b43d587c33d7521c893b00000000000000000000000000000000000000000000000000000000000000c000000000000000000000000000000000000000000000000000000000000001000000000000000000000000009e3f8146d3fa4b37033e73bfc95728f5b65b247300000000000000000000000000000000000000000000000000000000000000114475626169205265616c2045737461746500000000000000000000000000000000000000000000000000000000000000000000000000000000000000000000054452454954000000000000000000000000000000000000000000000000000000"
      ],
      "transaction": {
        "from": "0x9e3f8146d3fa4b37033e73bfc95728f5b65b2473",
        "to": null,
        "gas": "0x6c192",
        "value": "0x0",
        "input": "0x60806040526102ba8038038061001481610186565b928339810160408282031261016e578151916001600160a01b0383169081840361016e576020810151906001600160401b03821161016e570182601f8201121561016e578051906001600160401b0382116101725761007c601f8301601f1916602001610186565b938285526020838301011161016e575f5b82811061015957505060205f918401015281511561014a57823b15610138577f360894a13ba1a3210667c828492db98dca3e2076cc3735a920a3ca505d382bbc80546001600160a01b031916821790557fbc7cd75a20ee27fd9adebab32041f755214dbc6bffa90cc0225b39da2e5c2d3b5f80a280511561012157610111916101ab565b505b604051608290816102388239f35b505034156101135763b398979f60e01b5f5260045ffd5b634c9c8ce360e01b5f5260045260245ffd5b6330a289cf60e21b5f5260045ffd5b8060208092840101518282880101520161008d565b5f80fd5b634e487b7160e01b5f52604160045260245ffd5b6040519190601f01601f191682016001600160401b0381118382101761017257604052565b905f8091602081519101845af48080610224575b156101df5750506040513d81523d5f602083013e60203d82010160405290565b1561020457639996b31560e01b5f9081526001600160a01b0391909116600452602490fd5b3d15610215576040513d5f823e3d90fd5b63d6bda27560e01b5f5260045ffd5b503d1515806101bf5750813b15156101bf56fe60806040527f360894a13ba1a3210667c828492db98dca3e2076cc3735a920a3ca505d382bbc545f9081906001600160a01b0316368280378136915af43d5f803e156048573d5ff35b3d5ffdfea2646970667358221220d752f5cce5780e13049e09a0dfa3471aebeb75b297c18ee55efaa9848ef2f3c264736f6c634300081c003300000000000000000000000054d3853ad3c283ac12cbfa2ff8ff0a72b27b49be00000000000000000000000000000000000000000000000000000000000000400000000000000000000000000000000000000000000000000000000000000144a5b81fdf0000000000000000000000001c7d4b196cb0c7b01d743fbc6116a902379c723800000000000000000000000092a65ae2f3fbde6e917cfaf6a1c69fd23ba102c00000000000000000000000002a6847579906baa18656b43d587c33d7521c893b00000000000000000000000000000000000000000000000000000000000000c000000000000000000000000000000000000000000000000000000000000001000000000000000000000000009e3f8146d3fa4b37033e73bfc95728f5b65b247300000000000000000000000000000000000000000000000000000000000000114475626169205265616c204573746174650000000000000000000000000000000000000000000000000000000000000000000000000000000000000000000005445245495400000000000000000000000000000000000000000000000000000000000000000000000000000000000000000000000000000000000000",
        "nonce": "0xc",
        "chainId": "0xaa36a7"
      },
      "additionalContracts": [],
      "isFixedGasLimit": false
    },
    {
      "hash": "0x3650db5d594f11db370e34331cc1ff83128d743a6ea767fd91f380b2022beb93",
      "transactionType": "CALL",
      "contractName": "TimelockController",
      "contractAddress": "0xc51aaccb820dc42d1b57b729a0abd9700819643d",
      "function": "grantRole(bytes32,address)",
      "arguments": [
        "0xb09aa5aeb3702cfd50b6b62bc4532604938f21248a27a1d5ca736082b6819cc1",
        "0x9e3f8146d3FA4B37033e73BFC95728f5B65B2473"
      ],
      "transaction": {
        "from": "0x9e3f8146d3fa4b37033e73bfc95728f5b65b2473",
        "to": "0xc51aaccb820dc42d1b57b729a0abd9700819643d",
        "gas": "0x9d17",
        "value": "0x0",
        "input": "0x2f2ff15db09aa5aeb3702cfd50b6b62bc4532604938f21248a27a1d5ca736082b6819cc10000000000000000000000009e3f8146d3fa4b37033e73bfc95728f5b65b2473",
        "nonce": "0xd",
        "chainId": "0xaa36a7"
      },
      "additionalContracts": [],
      "isFixedGasLimit": false
    },
    {
      "hash": "0x12d17cd155c94a75140a8bdc872f39a44cb7afa98a06d8f69ec130ce4e28aab7",
      "transactionType": "CALL",
      "contractName": "TimelockController",
      "contractAddress": "0xc51aaccb820dc42d1b57b729a0abd9700819643d",
      "function": "grantRole(bytes32,address)",
      "arguments": [
        "0xd8aa0f3194971a2a116679f7c2090f6939c8d4e01a2a8d7e41d55e5351469e63",
        "0x9e3f8146d3FA4B37033e73BFC95728f5B65B2473"
      ],
      "transaction": {
        "from": "0x9e3f8146d3fa4b37033e73bfc95728f5b65b2473",
        "to": "0xc51aaccb820dc42d1b57b729a0abd9700819643d",
        "gas": "0x9d17",
        "value": "0x0",
        "input": "0x2f2ff15dd8aa0f3194971a2a116679f7c2090f6939c8d4e01a2a8d7e41d55e5351469e630000000000000000000000009e3f8146d3fa4b37033e73bfc95728f5b65b2473",
        "nonce": "0xe",
        "chainId": "0xaa36a7"
      },
      "additionalContracts": [],
      "isFixedGasLimit": false
    },
    {
      "hash": "0xd4db374f22db318593c5ae328e6d8a8b6f76557a8e4253ffa468a720db591b7f",
      "transactionType": "CALL",
      "contractName": "TimelockController",
      "contractAddress": "0xc51aaccb820dc42d1b57b729a0abd9700819643d",
      "function": "grantRole(bytes32,address)",
      "arguments": [
        "0xfd643c72710c63c0180259aba6b2d05451e3591a24e58b62239378085726f783",
        "0x9e3f8146d3FA4B37033e73BFC95728f5B65B2473"
      ],
      "transaction": {
        "from": "0x9e3f8146d3fa4b37033e73bfc95728f5b65b2473",
        "to": "0xc51aaccb820dc42d1b57b729a0abd9700819643d",
        "gas": "0x9d17",
        "value": "0x0",
        "input": "0x2f2ff15dfd643c72710c63c0180259aba6b2d05451e3591a24e58b62239378085726f7830000000000000000000000009e3f8146d3fa4b37033e73bfc95728f5b65b2473",
        "nonce": "0xf",
        "chainId": "0xaa36a7"
      },
      "additionalContracts": [],
      "isFixedGasLimit": false
    },
    {
      "hash": "0x200ead04359403994190a77778c8132e465830dfd11809a3968c299493584342",
      "transactionType": "CALL",
      "contractName": "ERC1967Proxy",
      "contractAddress": "0x92a65ae2f3fbde6e917cfaf6a1c69fd23ba102c0",
      "function": null,
      "arguments": null,
      "transaction": {
        "from": "0x9e3f8146d3fa4b37033e73bfc95728f5b65b2473",
        "to": "0x92a65ae2f3fbde6e917cfaf6a1c69fd23ba102c0",
        "gas": "0xb746",
        "value": "0x0",
        "input": "0x2f2ff15d114e74f6ea3bd819998f78687bfcb11b140da08e9b7d222fa9c1f1ba1f2aa1220000000000000000000000009e3f8146d3fa4b37033e73bfc95728f5b65b2473",
        "nonce": "0x10",
        "chainId": "0xaa36a7"
      },
      "additionalContracts": [],
      "isFixedGasLimit": false
    },
    {
      "hash": "0x2aff398f3eaf238ae32847d6b46c2d71074b286312d4d372ef378fd02acd1372",
      "transactionType": "CALL",
      "contractName": "ERC1967Proxy",
      "contractAddress": "0x8dba9525dd70dbfba528cde818373df24c09a189",
      "function": null,
      "arguments": null,
      "transaction": {
        "from": "0x9e3f8146d3fa4b37033e73bfc95728f5b65b2473",
        "to": "0x8dba9525dd70dbfba528cde818373df24c09a189",
        "gas": "0xb7a7",
        "value": "0x0",
        "input": "0x2f2ff15d114e74f6ea3bd819998f78687bfcb11b140da08e9b7d222fa9c1f1ba1f2aa1220000000000000000000000009e3f8146d3fa4b37033e73bfc95728f5b65b2473",
        "nonce": "0x11",
        "chainId": "0xaa36a7"
      },
      "additionalContracts": [],
      "isFixedGasLimit": false
    },
    {
      "hash": "0x9d540b4a6e5611e28a03424f721682c0cff049b2344949ccb35ea916d291084e",
      "transactionType": "CALL",
      "contractName": "ERC1967Proxy",
      "contractAddress": "0x8dba9525dd70dbfba528cde818373df24c09a189",
      "function": null,
      "arguments": null,
      "transaction": {
        "from": "0x9e3f8146d3fa4b37033e73bfc95728f5b65b2473",
        "to": "0x8dba9525dd70dbfba528cde818373df24c09a189",
        "gas": "0xb7a7",
        "value": "0x0",
        "input": "0x2f2ff15d20b5f7ac978e5d6199de06401411960dfa81d2f762655f6206bdc61d46fc19e60000000000000000000000009e3f8146d3fa4b37033e73bfc95728f5b65b2473",
        "nonce": "0x12",
        "chainId": "0xaa36a7"
      },
      "additionalContracts": [],
      "isFixedGasLimit": false
    },
    {
      "hash": "0x6b804ae637e894dc2e5cb9fec5fb47e669a8bc65722c5c3631c383ddd3c1763b",
      "transactionType": "CALL",
      "contractName": "ERC1967Proxy",
      "contractAddress": "0x2a6847579906baa18656b43d587c33d7521c893b",
      "function": null,
      "arguments": null,
      "transaction": {
        "from": "0x9e3f8146d3fa4b37033e73bfc95728f5b65b2473",
        "to": "0x2a6847579906baa18656b43d587c33d7521c893b",
        "gas": "0xb764",
        "value": "0x0",
        "input": "0x2f2ff15d20b5f7ac978e5d6199de06401411960dfa81d2f762655f6206bdc61d46fc19e60000000000000000000000009e3f8146d3fa4b37033e73bfc95728f5b65b2473",
        "nonce": "0x13",
        "chainId": "0xaa36a7"
      },
      "additionalContracts": [],
      "isFixedGasLimit": false
    },
    {
      "hash": "0x9ed39a24ebcded05d60db838a427577056d8ef991fc2abd3d036269826e16920",
      "transactionType": "CALL",
      "contractName": "ERC1967Proxy",
      "contractAddress": "0x2a6847579906baa18656b43d587c33d7521c893b",
      "function": null,
      "arguments": null,
      "transaction": {
        "from": "0x9e3f8146d3fa4b37033e73bfc95728f5b65b2473",
        "to": "0x2a6847579906baa18656b43d587c33d7521c893b",
        "gas": "0x119ac",
        "value": "0x0",
        "input": "0x3ff5aa020000000000000000000000008dba9525dd70dbfba528cde818373df24c09a189",
        "nonce": "0x14",
        "chainId": "0xaa36a7"
      },
      "additionalContracts": [],
      "isFixedGasLimit": false
    },
    {
      "hash": "0x5302fb000a696a138c2035bdb935f36184e777dcb9dc3182a1055767b3e48beb",
      "transactionType": "CALL",
      "contractName": "ERC1967Proxy",
      "contractAddress": "0x92a65ae2f3fbde6e917cfaf6a1c69fd23ba102c0",
      "function": null,
      "arguments": null,
      "transaction": {
        "from": "0x9e3f8146d3fa4b37033e73bfc95728f5b65b2473",
        "to": "0x92a65ae2f3fbde6e917cfaf6a1c69fd23ba102c0",
        "gas": "0x12095",
        "value": "0x0",
        "input": "0x144fa6d70000000000000000000000008dba9525dd70dbfba528cde818373df24c09a189",
        "nonce": "0x15",
        "chainId": "0xaa36a7"
      },
      "additionalContracts": [],
      "isFixedGasLimit": false
    },
    {
      "hash": "0x37f8565e8ad2162a77fe4e208eed260b6350043b580187ddca544fd990cf9f00",
      "transactionType": "CALL",
      "contractName": "ERC1967Proxy",
      "contractAddress": "0x92a65ae2f3fbde6e917cfaf6a1c69fd23ba102c0",
      "function": null,
      "arguments": null,
      "transaction": {
        "from": "0x9e3f8146d3fa4b37033e73bfc95728f5b65b2473",
        "to": "0x92a65ae2f3fbde6e917cfaf6a1c69fd23ba102c0",
        "gas": "0x13ebf",
        "value": "0x0",
        "input": "0x2f2ff15d0000000000000000000000000000000000000000000000000000000000000000000000000000000000000000c51aaccb820dc42d1b57b729a0abd9700819643d",
        "nonce": "0x16",
        "chainId": "0xaa36a7"
      },
      "additionalContracts": [],
      "isFixedGasLimit": false
    },
    {
      "hash": "0x918a02fa060f5fa32070bf12c3ddc4e327c77d517fcd6c9ec8493b4aa3459851",
      "transactionType": "CALL",
      "contractName": "ERC1967Proxy",
      "contractAddress": "0x2a6847579906baa18656b43d587c33d7521c893b",
      "function": null,
      "arguments": null,
      "transaction": {
        "from": "0x9e3f8146d3fa4b37033e73bfc95728f5b65b2473",
        "to": "0x2a6847579906baa18656b43d587c33d7521c893b",
        "gas": "0x13ee0",
        "value": "0x0",
        "input": "0x2f2ff15d0000000000000000000000000000000000000000000000000000000000000000000000000000000000000000c51aaccb820dc42d1b57b729a0abd9700819643d",
        "nonce": "0x17",
        "chainId": "0xaa36a7"
      },
      "additionalContracts": [],
      "isFixedGasLimit": false
    },
    {
      "hash": "0xf047debf70af71fb0c4a0e9300594b0398f7c1886bc0099fa2b7679b161176e9",
      "transactionType": "CALL",
      "contractName": "ERC1967Proxy",
      "contractAddress": "0x8dba9525dd70dbfba528cde818373df24c09a189",
      "function": null,
      "arguments": null,
      "transaction": {
        "from": "0x9e3f8146d3fa4b37033e73bfc95728f5b65b2473",
        "to": "0x8dba9525dd70dbfba528cde818373df24c09a189",
        "gas": "0x12d94",
        "value": "0x0",
        "input": "0x2f2ff15d0000000000000000000000000000000000000000000000000000000000000000000000000000000000000000c51aaccb820dc42d1b57b729a0abd9700819643d",
        "nonce": "0x18",
        "chainId": "0xaa36a7"
      },
      "additionalContracts": [],
      "isFixedGasLimit": false
    },
    {
      "hash": "0x57d42093d776ec4771af718b6fb9403cea2eb8430948295c83ac0df8c3362d6a",
      "transactionType": "CALL",
      "contractName": "ERC1967Proxy",
      "contractAddress": "0x92a65ae2f3fbde6e917cfaf6a1c69fd23ba102c0",
      "function": null,
      "arguments": null,
      "transaction": {
        "from": "0x9e3f8146d3fa4b37033e73bfc95728f5b65b2473",
        "to": "0x92a65ae2f3fbde6e917cfaf6a1c69fd23ba102c0",
        "gas": "0x9ebf",
        "value": "0x0",
        "input": "0x36568abe00000000000000000000000000000000000000000000000000000000000000000000000000000000000000009e3f8146d3fa4b37033e73bfc95728f5b65b2473",
        "nonce": "0x19",
        "chainId": "0xaa36a7"
      },
      "additionalContracts": [],
      "isFixedGasLimit": false
    },
    {
      "hash": "0x37d746f4b17fdbc3b1994d022f419c51a95e37608c1a06c49f70eef25d17955f",
      "transactionType": "CALL",
      "contractName": "ERC1967Proxy",
      "contractAddress": "0x2a6847579906baa18656b43d587c33d7521c893b",
      "function": null,
      "arguments": null,
      "transaction": {
        "from": "0x9e3f8146d3fa4b37033e73bfc95728f5b65b2473",
        "to": "0x2a6847579906baa18656b43d587c33d7521c893b",
        "gas": "0x9ede",
        "value": "0x0",
        "input": "0x36568abe00000000000000000000000000000000000000000000000000000000000000000000000000000000000000009e3f8146d3fa4b37033e73bfc95728f5b65b2473",
        "nonce": "0x1a",
        "chainId": "0xaa36a7"
      },
      "additionalContracts": [],
      "isFixedGasLimit": false
    },
    {
      "hash": "0x415d2c0b9030a6b048e56b0fb82f383bd8cd650cddcf8cb9f72ba371a450ed15",
      "transactionType": "CALL",
      "contractName": "ERC1967Proxy",
      "contractAddress": "0x8dba9525dd70dbfba528cde818373df24c09a189",
      "function": null,
      "arguments": null,
      "transaction": {
        "from": "0x9e3f8146d3fa4b37033e73bfc95728f5b65b2473",
        "to": "0x8dba9525dd70dbfba528cde818373df24c09a189",
        "gas": "0x9f7d",
        "value": "0x0",
        "input": "0x36568abe00000000000000000000000000000000000000000000000000000000000000000000000000000000000000009e3f8146d3fa4b37033e73bfc95728f5b65b2473",
        "nonce": "0x1b",
        "chainId": "0xaa36a7"
      },
      "additionalContracts": [],
      "isFixedGasLimit": false
    },
    {
      "hash": "0xff8f18622e0b9f29be0719eb072c25b2089501be078832a0621332db63ee576a",
      "transactionType": "CALL",
      "contractName": "TimelockController",
      "contractAddress": "0xc51aaccb820dc42d1b57b729a0abd9700819643d",
      "function": "renounceRole(bytes32,address)",
      "arguments": [
        "0x0000000000000000000000000000000000000000000000000000000000000000",
        "0x9e3f8146d3FA4B37033e73BFC95728f5B65B2473"
      ],
      "transaction": {
        "from": "0x9e3f8146d3fa4b37033e73bfc95728f5b65b2473",
        "to": "0xc51aaccb820dc42d1b57b729a0abd9700819643d",
        "gas": "0x84c3",
        "value": "0x0",
        "input": "0x36568abe00000000000000000000000000000000000000000000000000000000000000000000000000000000000000009e3f8146d3fa4b37033e73bfc95728f5b65b2473",
        "nonce": "0x1c",
        "chainId": "0xaa36a7"
      },
      "additionalContracts": [],
      "isFixedGasLimit": false
    },
    {
      "hash": "0x29670c1aa78a66092c563c9411a8d9547426164752670b57a62c956c282d9e6e",
      "transactionType": "CALL",
      "contractName": "TimelockController",
      "contractAddress": "0xc51aaccb820dc42d1b57b729a0abd9700819643d",
      "function": "renounceRole(bytes32,address)",
      "arguments": [
        "0xb09aa5aeb3702cfd50b6b62bc4532604938f21248a27a1d5ca736082b6819cc1",
        "0x9e3f8146d3FA4B37033e73BFC95728f5B65B2473"
      ],
      "transaction": {
        "from": "0x9e3f8146d3fa4b37033e73bfc95728f5b65b2473",
        "to": "0xc51aaccb820dc42d1b57b729a0abd9700819643d",
        "gas": "0x86d5",
        "value": "0x0",
        "input": "0x36568abeb09aa5aeb3702cfd50b6b62bc4532604938f21248a27a1d5ca736082b6819cc10000000000000000000000009e3f8146d3fa4b37033e73bfc95728f5b65b2473",
        "nonce": "0x1d",
        "chainId": "0xaa36a7"
      },
      "additionalContracts": [],
      "isFixedGasLimit": false
    },
    {
      "hash": "0x8d1b1e188afd29d5d23934101fa94459652d4b7fe55cd8f4e29d975395720d38",
      "transactionType": "CALL",
      "contractName": "TimelockController",
      "contractAddress": "0xc51aaccb820dc42d1b57b729a0abd9700819643d",
      "function": "renounceRole(bytes32,address)",
      "arguments": [
        "0xd8aa0f3194971a2a116679f7c2090f6939c8d4e01a2a8d7e41d55e5351469e63",
        "0x9e3f8146d3FA4B37033e73BFC95728f5B65B2473"
      ],
      "transaction": {
        "from": "0x9e3f8146d3fa4b37033e73bfc95728f5b65b2473",
        "to": "0xc51aaccb820dc42d1b57b729a0abd9700819643d",
        "gas": "0x86d5",
        "value": "0x0",
        "input": "0x36568abed8aa0f3194971a2a116679f7c2090f6939c8d4e01a2a8d7e41d55e5351469e630000000000000000000000009e3f8146d3fa4b37033e73bfc95728f5b65b2473",
        "nonce": "0x1e",
        "chainId": "0xaa36a7"
      },
      "additionalContracts": [],
      "isFixedGasLimit": false
    },
    {
      "hash": "0x1802eb561c9670f3c1c8d38916d733d0cacf66bd9330096de53fe260e1c5049d",
      "transactionType": "CALL",
      "contractName": "TimelockController",
      "contractAddress": "0xc51aaccb820dc42d1b57b729a0abd9700819643d",
      "function": "renounceRole(bytes32,address)",
      "arguments": [
        "0xfd643c72710c63c0180259aba6b2d05451e3591a24e58b62239378085726f783",
        "0x9e3f8146d3FA4B37033e73BFC95728f5B65B2473"
      ],
      "transaction": {
        "from": "0x9e3f8146d3fa4b37033e73bfc95728f5b65b2473",
        "to": "0xc51aaccb820dc42d1b57b729a0abd9700819643d",
        "gas": "0x86d5",
        "value": "0x0",
        "input": "0x36568abefd643c72710c63c0180259aba6b2d05451e3591a24e58b62239378085726f7830000000000000000000000009e3f8146d3fa4b37033e73bfc95728f5b65b2473",
        "nonce": "0x1f",
        "chainId": "0xaa36a7"
      },
      "additionalContracts": [],
      "isFixedGasLimit": false
    }
  ],
  "receipts": [
    {
      "type": "0x2",
      "status": "0x1",
      "cumulativeGasUsed": "0xf53bda",
      "logs": [
        {
          "address": "0x9bb17957fc8a62b6c139eccc8df56540cdb5b200",
          "topics": [
            "0xc7f505b2f371ae2175ee4913f4499e1f2633a7b5936321eed1cdaeb6115181d2"
          ],
          "data": "0x000000000000000000000000000000000000000000000000ffffffffffffffff",
          "blockHash": "0xe4fb167b2dcc536a1c9ef1617ce07fdaa79dabea3adcbd680e05783207a8f05f",
          "blockNumber": "0xa88e28",
          "blockTimestamp": "0x6a2c6df8",
          "transactionHash": "0x4754e0d445fa621fd6c5d60919dd7b4192ac4108d41cf4b80d6f15f79e30184c",
          "transactionIndex": "0x8f",
          "logIndex": "0x141",
          "removed": false
        }
      ],
      "logsBloom": "0x00000000000000000000000000000000000000000000000000000000000000000000000000000000000000000000000000000000000000000000000000000000000000000000000000000000000000000000000000000000000000000000000000000000000000000000000000000000000000000000000000000000000000000000200000000000000800000000000000000000000080000000000000000000000000000000000000000000000000000000000000000000000000000000000000040000000010000000000000000000000000000004000000000000000000000000000000000000000000000000000000000000000000000000000000000000",
      "transactionHash": "0x4754e0d445fa621fd6c5d60919dd7b4192ac4108d41cf4b80d6f15f79e30184c",
      "transactionIndex": "0x8f",
      "blockHash": "0xe4fb167b2dcc536a1c9ef1617ce07fdaa79dabea3adcbd680e05783207a8f05f",
      "blockNumber": "0xa88e28",
      "gasUsed": "0x207d2d",
      "effectiveGasPrice": "0x3e984d75",
      "from": "0x9e3f8146d3fa4b37033e73bfc95728f5b65b2473",
      "to": null,
      "contractAddress": "0x9bb17957fc8a62b6c139eccc8df56540cdb5b200"
    },
    {
      "type": "0x2",
      "status": "0x1",
      "cumulativeGasUsed": "0x10dd3e5",
      "logs": [
        {
          "address": "0xa66bcfc4ae9b856c6a9594eec3ad37f3c03af8df",
          "topics": [
            "0xc7f505b2f371ae2175ee4913f4499e1f2633a7b5936321eed1cdaeb6115181d2"
          ],
          "data": "0x000000000000000000000000000000000000000000000000ffffffffffffffff",
          "blockHash": "0xe4fb167b2dcc536a1c9ef1617ce07fdaa79dabea3adcbd680e05783207a8f05f",
          "blockNumber": "0xa88e28",
          "blockTimestamp": "0x6a2c6df8",
          "transactionHash": "0xf143126f19c839812e3a4b5f193c4f66e2a10c9d7939ab6dc9f58576a86be3e9",
          "transactionIndex": "0x90",
          "logIndex": "0x142",
          "removed": false
        }
      ],
      "logsBloom": "0x00000000000000000000000000000000000000000000000000000000000000000000000000000000001000000000000000000000000000000000000000000002000000000000000000000000000000000000000000000000000000000000000000000000000000000000000000000000000000000000000000000000000010000000000000000000000800000000000000000000000080000000000000000000000000000000000000000000000000000000000000000000000000000000000000000000000000000000000000000000000000000004000000000000000000000000000000000000000000000000000000000000000000000000000000000000",
      "transactionHash": "0xf143126f19c839812e3a4b5f193c4f66e2a10c9d7939ab6dc9f58576a86be3e9",
      "transactionIndex": "0x90",
      "blockHash": "0xe4fb167b2dcc536a1c9ef1617ce07fdaa79dabea3adcbd680e05783207a8f05f",
      "blockNumber": "0xa88e28",
      "gasUsed": "0x18980b",
      "effectiveGasPrice": "0x3e984d75",
      "from": "0x9e3f8146d3fa4b37033e73bfc95728f5b65b2473",
      "to": null,
      "contractAddress": "0xa66bcfc4ae9b856c6a9594eec3ad37f3c03af8df"
    },
    {
      "type": "0x2",
      "status": "0x1",
      "cumulativeGasUsed": "0x13e03fc",
      "logs": [
        {
          "address": "0x54d3853ad3c283ac12cbfa2ff8ff0a72b27b49be",
          "topics": [
            "0xc7f505b2f371ae2175ee4913f4499e1f2633a7b5936321eed1cdaeb6115181d2"
          ],
          "data": "0x000000000000000000000000000000000000000000000000ffffffffffffffff",
          "blockHash": "0xe4fb167b2dcc536a1c9ef1617ce07fdaa79dabea3adcbd680e05783207a8f05f",
          "blockNumber": "0xa88e28",
          "blockTimestamp": "0x6a2c6df8",
          "transactionHash": "0x530df635d1c52c7d2a1f8af4510dac98ecf8944f0a281a1c5c9bbcea36964ad7",
          "transactionIndex": "0x91",
          "logIndex": "0x143",
          "removed": false
        }
      ],
      "logsBloom": "0x00000000000000000000000000000000000000000000000000000000000000000000000000000000000000000000000000000000000000000000000000000000000000000000000000000000000000000000000000000000000000000000000000000000000000000000000000000000000000000000000000000000000000000000000000000000000800000000000000000000000080000000004000000000000000000000000000000000000000000000000000000000000000800000000000000000000000000000000000000000000000000004000000000000000000000000000000100000000000000000000000000000000000000000000000000000",
      "transactionHash": "0x530df635d1c52c7d2a1f8af4510dac98ecf8944f0a281a1c5c9bbcea36964ad7",
      "transactionIndex": "0x91",
      "blockHash": "0xe4fb167b2dcc536a1c9ef1617ce07fdaa79dabea3adcbd680e05783207a8f05f",
      "blockNumber": "0xa88e28",
      "gasUsed": "0x303017",
      "effectiveGasPrice": "0x3e984d75",
      "from": "0x9e3f8146d3fa4b37033e73bfc95728f5b65b2473",
      "to": null,
      "contractAddress": "0x54d3853ad3c283ac12cbfa2ff8ff0a72b27b49be"
    },
    {
      "type": "0x2",
      "status": "0x1",
      "cumulativeGasUsed": "0x1536537",
      "logs": [
        {
          "address": "0xc51aaccb820dc42d1b57b729a0abd9700819643d",
          "topics": [
            "0x2f8788117e7eff1d82e926ec794901d17c78024a50270940304540a733656f0d",
            "0x0000000000000000000000000000000000000000000000000000000000000000",
            "0x000000000000000000000000c51aaccb820dc42d1b57b729a0abd9700819643d",
            "0x0000000000000000000000009e3f8146d3fa4b37033e73bfc95728f5b65b2473"
          ],
          "data": "0x",
          "blockHash": "0xe4fb167b2dcc536a1c9ef1617ce07fdaa79dabea3adcbd680e05783207a8f05f",
          "blockNumber": "0xa88e28",
          "blockTimestamp": "0x6a2c6df8",
          "transactionHash": "0x9ef941eb8c432645ba012c335da08e9e38c3f17859b8eff427c3ccf778b13e61",
          "transactionIndex": "0x92",
          "logIndex": "0x144",
          "removed": false
        },
        {
          "address": "0xc51aaccb820dc42d1b57b729a0abd9700819643d",
          "topics": [
            "0x2f8788117e7eff1d82e926ec794901d17c78024a50270940304540a733656f0d",
            "0x0000000000000000000000000000000000000000000000000000000000000000",
            "0x0000000000000000000000009e3f8146d3fa4b37033e73bfc95728f5b65b2473",
            "0x0000000000000000000000009e3f8146d3fa4b37033e73bfc95728f5b65b2473"
          ],
          "data": "0x",
          "blockHash": "0xe4fb167b2dcc536a1c9ef1617ce07fdaa79dabea3adcbd680e05783207a8f05f",
          "blockNumber": "0xa88e28",
          "blockTimestamp": "0x6a2c6df8",
          "transactionHash": "0x9ef941eb8c432645ba012c335da08e9e38c3f17859b8eff427c3ccf778b13e61",
          "transactionIndex": "0x92",
          "logIndex": "0x145",
          "removed": false
        },
        {
          "address": "0xc51aaccb820dc42d1b57b729a0abd9700819643d",
          "topics": [
            "0x2f8788117e7eff1d82e926ec794901d17c78024a50270940304540a733656f0d",
            "0xb09aa5aeb3702cfd50b6b62bc4532604938f21248a27a1d5ca736082b6819cc1",
            "0x0000000000000000000000009e3f8146d3fa4b37033e73bfc95728f5b65b2473",
            "0x0000000000000000000000009e3f8146d3fa4b37033e73bfc95728f5b65b2473"
          ],
          "data": "0x",
          "blockHash": "0xe4fb167b2dcc536a1c9ef1617ce07fdaa79dabea3adcbd680e05783207a8f05f",
          "blockNumber": "0xa88e28",
          "blockTimestamp": "0x6a2c6df8",
          "transactionHash": "0x9ef941eb8c432645ba012c335da08e9e38c3f17859b8eff427c3ccf778b13e61",
          "transactionIndex": "0x92",
          "logIndex": "0x146",
          "removed": false
        },
        {
          "address": "0xc51aaccb820dc42d1b57b729a0abd9700819643d",
          "topics": [
            "0x2f8788117e7eff1d82e926ec794901d17c78024a50270940304540a733656f0d",
            "0xfd643c72710c63c0180259aba6b2d05451e3591a24e58b62239378085726f783",
            "0x0000000000000000000000009e3f8146d3fa4b37033e73bfc95728f5b65b2473",
            "0x0000000000000000000000009e3f8146d3fa4b37033e73bfc95728f5b65b2473"
          ],
          "data": "0x",
          "blockHash": "0xe4fb167b2dcc536a1c9ef1617ce07fdaa79dabea3adcbd680e05783207a8f05f",
          "blockNumber": "0xa88e28",
          "blockTimestamp": "0x6a2c6df8",
          "transactionHash": "0x9ef941eb8c432645ba012c335da08e9e38c3f17859b8eff427c3ccf778b13e61",
          "transactionIndex": "0x92",
          "logIndex": "0x147",
          "removed": false
        },
        {
          "address": "0xc51aaccb820dc42d1b57b729a0abd9700819643d",
          "topics": [
            "0x2f8788117e7eff1d82e926ec794901d17c78024a50270940304540a733656f0d",
            "0xd8aa0f3194971a2a116679f7c2090f6939c8d4e01a2a8d7e41d55e5351469e63",
            "0x0000000000000000000000009e3f8146d3fa4b37033e73bfc95728f5b65b2473",
            "0x0000000000000000000000009e3f8146d3fa4b37033e73bfc95728f5b65b2473"
          ],
          "data": "0x",
          "blockHash": "0xe4fb167b2dcc536a1c9ef1617ce07fdaa79dabea3adcbd680e05783207a8f05f",
          "blockNumber": "0xa88e28",
          "blockTimestamp": "0x6a2c6df8",
          "transactionHash": "0x9ef941eb8c432645ba012c335da08e9e38c3f17859b8eff427c3ccf778b13e61",
          "transactionIndex": "0x92",
          "logIndex": "0x148",
          "removed": false
        },
        {
          "address": "0xc51aaccb820dc42d1b57b729a0abd9700819643d",
          "topics": [
            "0x11c24f4ead16507c69ac467fbd5e4eed5fb5c699626d2cc6d66421df253886d5"
          ],
          "data": "0x0000000000000000000000000000000000000000000000000000000000000000000000000000000000000000000000000000000000000000000000000002a300",
          "blockHash": "0xe4fb167b2dcc536a1c9ef1617ce07fdaa79dabea3adcbd680e05783207a8f05f",
          "blockNumber": "0xa88e28",
          "blockTimestamp": "0x6a2c6df8",
          "transactionHash": "0x9ef941eb8c432645ba012c335da08e9e38c3f17859b8eff427c3ccf778b13e61",
          "transactionIndex": "0x92",
          "logIndex": "0x149",
          "removed": false
        }
      ],
      "logsBloom": "0x00000004000000000000000000000000020000000000000000000000000000000000000000000000000000000001000800000000000000000200000010200000000000000000000000000010000000000000000000000000000000000000000000000000020000000000000000000800000000000000000000020000000000000000000000000000008000000000000000000010000000080000000000000000000000000020000000080000000000000000000000400000001000000000000080000200000000004000000000000000000000000000000100000100200020000000000000000000000000000000000000000010000000000000000000000000",
      "transactionHash": "0x9ef941eb8c432645ba012c335da08e9e38c3f17859b8eff427c3ccf778b13e61",
      "transactionIndex": "0x92",
      "blockHash": "0xe4fb167b2dcc536a1c9ef1617ce07fdaa79dabea3adcbd680e05783207a8f05f",
      "blockNumber": "0xa88e28",
      "gasUsed": "0x15613b",
      "effectiveGasPrice": "0x3e984d75",
      "from": "0x9e3f8146d3fa4b37033e73bfc95728f5b65b2473",
      "to": null,
      "contractAddress": "0xc51aaccb820dc42d1b57b729a0abd9700819643d"
    },
    {
      "type": "0x2",
      "status": "0x1",
      "cumulativeGasUsed": "0x15654c8",
      "logs": [
        {
          "address": "0x92a65ae2f3fbde6e917cfaf6a1c69fd23ba102c0",
          "topics": [
            "0xbc7cd75a20ee27fd9adebab32041f755214dbc6bffa90cc0225b39da2e5c2d3b",
            "0x0000000000000000000000009bb17957fc8a62b6c139eccc8df56540cdb5b200"
          ],
          "data": "0x",
          "blockHash": "0xe4fb167b2dcc536a1c9ef1617ce07fdaa79dabea3adcbd680e05783207a8f05f",
          "blockNumber": "0xa88e28",
          "blockTimestamp": "0x6a2c6df8",
          "transactionHash": "0xe47e4fcfc4cb2e98bd69a0785288bd0b52e7c91982710de4b456e68e1d23f563",
          "transactionIndex": "0x93",
          "logIndex": "0x14a",
          "removed": false
        },
        {
          "address": "0x92a65ae2f3fbde6e917cfaf6a1c69fd23ba102c0",
          "topics": [
            "0x2f8788117e7eff1d82e926ec794901d17c78024a50270940304540a733656f0d",
            "0x0000000000000000000000000000000000000000000000000000000000000000",
            "0x0000000000000000000000009e3f8146d3fa4b37033e73bfc95728f5b65b2473",
            "0x0000000000000000000000009e3f8146d3fa4b37033e73bfc95728f5b65b2473"
          ],
          "data": "0x",
          "blockHash": "0xe4fb167b2dcc536a1c9ef1617ce07fdaa79dabea3adcbd680e05783207a8f05f",
          "blockNumber": "0xa88e28",
          "blockTimestamp": "0x6a2c6df8",
          "transactionHash": "0xe47e4fcfc4cb2e98bd69a0785288bd0b52e7c91982710de4b456e68e1d23f563",
          "transactionIndex": "0x93",
          "logIndex": "0x14b",
          "removed": false
        },
        {
          "address": "0x92a65ae2f3fbde6e917cfaf6a1c69fd23ba102c0",
          "topics": [
            "0x2f8788117e7eff1d82e926ec794901d17c78024a50270940304540a733656f0d",
            "0x114e74f6ea3bd819998f78687bfcb11b140da08e9b7d222fa9c1f1ba1f2aa122",
            "0x0000000000000000000000009e3f8146d3fa4b37033e73bfc95728f5b65b2473",
            "0x0000000000000000000000009e3f8146d3fa4b37033e73bfc95728f5b65b2473"
          ],
          "data": "0x",
          "blockHash": "0xe4fb167b2dcc536a1c9ef1617ce07fdaa79dabea3adcbd680e05783207a8f05f",
          "blockNumber": "0xa88e28",
          "blockTimestamp": "0x6a2c6df8",
          "transactionHash": "0xe47e4fcfc4cb2e98bd69a0785288bd0b52e7c91982710de4b456e68e1d23f563",
          "transactionIndex": "0x93",
          "logIndex": "0x14c",
          "removed": false
        },
        {
          "address": "0x92a65ae2f3fbde6e917cfaf6a1c69fd23ba102c0",
          "topics": [
            "0xc7f505b2f371ae2175ee4913f4499e1f2633a7b5936321eed1cdaeb6115181d2"
          ],
          "data": "0x0000000000000000000000000000000000000000000000000000000000000001",
          "blockHash": "0xe4fb167b2dcc536a1c9ef1617ce07fdaa79dabea3adcbd680e05783207a8f05f",
          "blockNumber": "0xa88e28",
          "blockTimestamp": "0x6a2c6df8",
          "transactionHash": "0xe47e4fcfc4cb2e98bd69a0785288bd0b52e7c91982710de4b456e68e1d23f563",
          "transactionIndex": "0x93",
          "logIndex": "0x14d",
          "removed": false
        }
      ],
      "logsBloom": "0x00000004000000000000000000000000400000000000000002000000000000000000000000000000000000000000000000000000000000000000000000000000000000000000000000000000000002000000000000000000000000000000000000000000020000000000000000000800000000000000000000000040000000000000000000000000008800000000000000000000000080000000000000000000000040000000000000000000000000000000000000000000001000000021000080000020000003020000000000000000000000000004000100000100000020000000000004000000000000000000000000000000000000000000000000000000",
      "transactionHash": "0xe47e4fcfc4cb2e98bd69a0785288bd0b52e7c91982710de4b456e68e1d23f563",
      "transactionIndex": "0x93",
      "blockHash": "0xe4fb167b2dcc536a1c9ef1617ce07fdaa79dabea3adcbd680e05783207a8f05f",
      "blockNumber": "0xa88e28",
      "gasUsed": "0x2ef91",
      "effectiveGasPrice": "0x3e984d75",
      "from": "0x9e3f8146d3fa4b37033e73bfc95728f5b65b2473",
      "to": null,
      "contractAddress": "0x92a65ae2f3fbde6e917cfaf6a1c69fd23ba102c0"
    },
    {
      "type": "0x2",
      "status": "0x1",
      "cumulativeGasUsed": "0x1599b55",
      "logs": [
        {
          "address": "0x2a6847579906baa18656b43d587c33d7521c893b",
          "topics": [
            "0xbc7cd75a20ee27fd9adebab32041f755214dbc6bffa90cc0225b39da2e5c2d3b",
            "0x000000000000000000000000a66bcfc4ae9b856c6a9594eec3ad37f3c03af8df"
          ],
          "data": "0x",
          "blockHash": "0xe4fb167b2dcc536a1c9ef1617ce07fdaa79dabea3adcbd680e05783207a8f05f",
          "blockNumber": "0xa88e28",
          "blockTimestamp": "0x6a2c6df8",
          "transactionHash": "0xcf9f42e6c6bf2b31b2a75809e377d856196234ed40fee31eb7c47197ba8d145f",
          "transactionIndex": "0x94",
          "logIndex": "0x14e",
          "removed": false
        },
        {
          "address": "0x2a6847579906baa18656b43d587c33d7521c893b",
          "topics": [
            "0x2f8788117e7eff1d82e926ec794901d17c78024a50270940304540a733656f0d",
            "0x0000000000000000000000000000000000000000000000000000000000000000",
            "0x0000000000000000000000009e3f8146d3fa4b37033e73bfc95728f5b65b2473",
            "0x0000000000000000000000009e3f8146d3fa4b37033e73bfc95728f5b65b2473"
          ],
          "data": "0x",
          "blockHash": "0xe4fb167b2dcc536a1c9ef1617ce07fdaa79dabea3adcbd680e05783207a8f05f",
          "blockNumber": "0xa88e28",
          "blockTimestamp": "0x6a2c6df8",
          "transactionHash": "0xcf9f42e6c6bf2b31b2a75809e377d856196234ed40fee31eb7c47197ba8d145f",
          "transactionIndex": "0x94",
          "logIndex": "0x14f",
          "removed": false
        },
        {
          "address": "0x2a6847579906baa18656b43d587c33d7521c893b",
          "topics": [
            "0x2f8788117e7eff1d82e926ec794901d17c78024a50270940304540a733656f0d",
            "0x20b5f7ac978e5d6199de06401411960dfa81d2f762655f6206bdc61d46fc19e6",
            "0x0000000000000000000000009e3f8146d3fa4b37033e73bfc95728f5b65b2473",
            "0x0000000000000000000000009e3f8146d3fa4b37033e73bfc95728f5b65b2473"
          ],
          "data": "0x",
          "blockHash": "0xe4fb167b2dcc536a1c9ef1617ce07fdaa79dabea3adcbd680e05783207a8f05f",
          "blockNumber": "0xa88e28",
          "blockTimestamp": "0x6a2c6df8",
          "transactionHash": "0xcf9f42e6c6bf2b31b2a75809e377d856196234ed40fee31eb7c47197ba8d145f",
          "transactionIndex": "0x94",
          "logIndex": "0x150",
          "removed": false
        },
        {
          "address": "0x2a6847579906baa18656b43d587c33d7521c893b",
          "topics": [
            "0xc7f505b2f371ae2175ee4913f4499e1f2633a7b5936321eed1cdaeb6115181d2"
          ],
          "data": "0x0000000000000000000000000000000000000000000000000000000000000001",
          "blockHash": "0xe4fb167b2dcc536a1c9ef1617ce07fdaa79dabea3adcbd680e05783207a8f05f",
          "blockNumber": "0xa88e28",
          "blockTimestamp": "0x6a2c6df8",
          "transactionHash": "0xcf9f42e6c6bf2b31b2a75809e377d856196234ed40fee31eb7c47197ba8d145f",
          "transactionIndex": "0x94",
          "logIndex": "0x151",
          "removed": false
        }
      ],
      "logsBloom": "0x00000004000000000000000000000000400000000000000008000000000000000000000000000000004000000000000000200000000000000000008000000000000010000000000000000000000002000000000000000000000000000000000000000000020000000000200000000800000000000000000000000000020000000000000000000000008800000000000000000000000080000000000000000000000000000000000000400000000000000000000000000000001000000000000080000020000000000000000000000000000000000004000100000108000020000000000000000000000000000000000000000000000000000000000000000000",
      "transactionHash": "0xcf9f42e6c6bf2b31b2a75809e377d856196234ed40fee31eb7c47197ba8d145f",
      "transactionIndex": "0x94",
      "blockHash": "0xe4fb167b2dcc536a1c9ef1617ce07fdaa79dabea3adcbd680e05783207a8f05f",
      "blockNumber": "0xa88e28",
      "gasUsed": "0x3468d",
      "effectiveGasPrice": "0x3e984d75",
      "from": "0x9e3f8146d3fa4b37033e73bfc95728f5b65b2473",
      "to": null,
      "contractAddress": "0x2a6847579906baa18656b43d587c33d7521c893b"
    },
    {
      "type": "0x2",
      "status": "0x1",
      "cumulativeGasUsed": "0x15ecdc6",
      "logs": [
        {
          "address": "0x8dba9525dd70dbfba528cde818373df24c09a189",
          "topics": [
            "0xbc7cd75a20ee27fd9adebab32041f755214dbc6bffa90cc0225b39da2e5c2d3b",
            "0x00000000000000000000000054d3853ad3c283ac12cbfa2ff8ff0a72b27b49be"
          ],
          "data": "0x",
          "blockHash": "0xe4fb167b2dcc536a1c9ef1617ce07fdaa79dabea3adcbd680e05783207a8f05f",
          "blockNumber": "0xa88e28",
          "blockTimestamp": "0x6a2c6df8",
          "transactionHash": "0xc38aaca3f49a0e692d76c4aec8ad75dc95d4c659b7f3ca915c265eb2bcb43543",
          "transactionIndex": "0x95",
          "logIndex": "0x152",
          "removed": false
        },
        {
          "address": "0x8dba9525dd70dbfba528cde818373df24c09a189",
          "topics": [
            "0x2f8788117e7eff1d82e926ec794901d17c78024a50270940304540a733656f0d",
            "0x0000000000000000000000000000000000000000000000000000000000000000",
            "0x0000000000000000000000009e3f8146d3fa4b37033e73bfc95728f5b65b2473",
            "0x0000000000000000000000009e3f8146d3fa4b37033e73bfc95728f5b65b2473"
          ],
          "data": "0x",
          "blockHash": "0xe4fb167b2dcc536a1c9ef1617ce07fdaa79dabea3adcbd680e05783207a8f05f",
          "blockNumber": "0xa88e28",
          "blockTimestamp": "0x6a2c6df8",
          "transactionHash": "0xc38aaca3f49a0e692d76c4aec8ad75dc95d4c659b7f3ca915c265eb2bcb43543",
          "transactionIndex": "0x95",
          "logIndex": "0x153",
          "removed": false
        },
        {
          "address": "0x8dba9525dd70dbfba528cde818373df24c09a189",
          "topics": [
            "0x2f8788117e7eff1d82e926ec794901d17c78024a50270940304540a733656f0d",
            "0x114e74f6ea3bd819998f78687bfcb11b140da08e9b7d222fa9c1f1ba1f2aa122",
            "0x0000000000000000000000009e3f8146d3fa4b37033e73bfc95728f5b65b2473",
            "0x0000000000000000000000009e3f8146d3fa4b37033e73bfc95728f5b65b2473"
          ],
          "data": "0x",
          "blockHash": "0xe4fb167b2dcc536a1c9ef1617ce07fdaa79dabea3adcbd680e05783207a8f05f",
          "blockNumber": "0xa88e28",
          "blockTimestamp": "0x6a2c6df8",
          "transactionHash": "0xc38aaca3f49a0e692d76c4aec8ad75dc95d4c659b7f3ca915c265eb2bcb43543",
          "transactionIndex": "0x95",
          "logIndex": "0x154",
          "removed": false
        },
        {
          "address": "0x8dba9525dd70dbfba528cde818373df24c09a189",
          "topics": [
            "0x2f8788117e7eff1d82e926ec794901d17c78024a50270940304540a733656f0d",
            "0x20b5f7ac978e5d6199de06401411960dfa81d2f762655f6206bdc61d46fc19e6",
            "0x0000000000000000000000009e3f8146d3fa4b37033e73bfc95728f5b65b2473",
            "0x0000000000000000000000009e3f8146d3fa4b37033e73bfc95728f5b65b2473"
          ],
          "data": "0x",
          "blockHash": "0xe4fb167b2dcc536a1c9ef1617ce07fdaa79dabea3adcbd680e05783207a8f05f",
          "blockNumber": "0xa88e28",
          "blockTimestamp": "0x6a2c6df8",
          "transactionHash": "0xc38aaca3f49a0e692d76c4aec8ad75dc95d4c659b7f3ca915c265eb2bcb43543",
          "transactionIndex": "0x95",
          "logIndex": "0x155",
          "removed": false
        },
        {
          "address": "0x8dba9525dd70dbfba528cde818373df24c09a189",
          "topics": [
            "0xc7f505b2f371ae2175ee4913f4499e1f2633a7b5936321eed1cdaeb6115181d2"
          ],
          "data": "0x0000000000000000000000000000000000000000000000000000000000000001",
          "blockHash": "0xe4fb167b2dcc536a1c9ef1617ce07fdaa79dabea3adcbd680e05783207a8f05f",
          "blockNumber": "0xa88e28",
          "blockTimestamp": "0x6a2c6df8",
          "transactionHash": "0xc38aaca3f49a0e692d76c4aec8ad75dc95d4c659b7f3ca915c265eb2bcb43543",
          "transactionIndex": "0x95",
          "logIndex": "0x156",
          "removed": false
        }
      ],
      "logsBloom": "0x00000004000000000000000000000000400000000000000000008000000000000000000000000000000000000000000000200000000000000000000000000000000000000000000000000000000002000000000000000000000000000000000000000000020000000000000000000800008000000000000000000040020000000000000000000004008800200000000000000000000080000002000000000000000000000000000000400000000000000000000000000000001000000001000080000020000000000000000000000000000000000004080100000100000020000000000004000000000000000000000000000000000000000000000000000000",
      "transactionHash": "0xc38aaca3f49a0e692d76c4aec8ad75dc95d4c659b7f3ca915c265eb2bcb43543",
      "transactionIndex": "0x95",
      "blockHash": "0xe4fb167b2dcc536a1c9ef1617ce07fdaa79dabea3adcbd680e05783207a8f05f",
      "blockNumber": "0xa88e28",
      "gasUsed": "0x53271",
      "effectiveGasPrice": "0x3e984d75",
      "from": "0x9e3f8146d3fa4b37033e73bfc95728f5b65b2473",
      "to": null,
      "contractAddress": "0x8dba9525dd70dbfba528cde818373df24c09a189"
    },
    {
      "type": "0x2",
      "status": "0x1",
      "cumulativeGasUsed": "0x15f3f82",
      "logs": [],
      "logsBloom": "0x00000000000000000000000000000000000000000000000000000000000000000000000000000000000000000000000000000000000000000000000000000000000000000000000000000000000000000000000000000000000000000000000000000000000000000000000000000000000000000000000000000000000000000000000000000000000000000000000000000000000000000000000000000000000000000000000000000000000000000000000000000000000000000000000000000000000000000000000000000000000000000000000000000000000000000000000000000000000000000000000000000000000000000000000000000000",
      "transactionHash": "0x12d17cd155c94a75140a8bdc872f39a44cb7afa98a06d8f69ec130ce4e28aab7",
      "transactionIndex": "0x96",
      "blockHash": "0xe4fb167b2dcc536a1c9ef1617ce07fdaa79dabea3adcbd680e05783207a8f05f",
      "blockNumber": "0xa88e28",
      "gasUsed": "0x71bc",
      "effectiveGasPrice": "0x3e984d75",
      "from": "0x9e3f8146d3fa4b37033e73bfc95728f5b65b2473",
      "to": "0xc51aaccb820dc42d1b57b729a0abd9700819643d",
      "contractAddress": null
    },
    {
      "type": "0x2",
      "status": "0x1",
      "cumulativeGasUsed": "0x15fb13e",
      "logs": [],
      "logsBloom": "0x00000000000000000000000000000000000000000000000000000000000000000000000000000000000000000000000000000000000000000000000000000000000000000000000000000000000000000000000000000000000000000000000000000000000000000000000000000000000000000000000000000000000000000000000000000000000000000000000000000000000000000000000000000000000000000000000000000000000000000000000000000000000000000000000000000000000000000000000000000000000000000000000000000000000000000000000000000000000000000000000000000000000000000000000000000000",
      "transactionHash": "0x3650db5d594f11db370e34331cc1ff83128d743a6ea767fd91f380b2022beb93",
      "transactionIndex": "0x97",
      "blockHash": "0xe4fb167b2dcc536a1c9ef1617ce07fdaa79dabea3adcbd680e05783207a8f05f",
      "blockNumber": "0xa88e28",
      "gasUsed": "0x71bc",
      "effectiveGasPrice": "0x3e984d75",
      "from": "0x9e3f8146d3fa4b37033e73bfc95728f5b65b2473",
      "to": "0xc51aaccb820dc42d1b57b729a0abd9700819643d",
      "contractAddress": null
    },
    {
      "type": "0x2",
      "status": "0x1",
      "cumulativeGasUsed": "0x16022fa",
      "logs": [],
      "logsBloom": "0x00000000000000000000000000000000000000000000000000000000000000000000000000000000000000000000000000000000000000000000000000000000000000000000000000000000000000000000000000000000000000000000000000000000000000000000000000000000000000000000000000000000000000000000000000000000000000000000000000000000000000000000000000000000000000000000000000000000000000000000000000000000000000000000000000000000000000000000000000000000000000000000000000000000000000000000000000000000000000000000000000000000000000000000000000000000",
      "transactionHash": "0x9d540b4a6e5611e28a03424f721682c0cff049b2344949ccb35ea916d291084e",
      "transactionIndex": "0x98",
      "blockHash": "0xe4fb167b2dcc536a1c9ef1617ce07fdaa79dabea3adcbd680e05783207a8f05f",
      "blockNumber": "0xa88e28",
      "gasUsed": "0x71bc",
      "effectiveGasPrice": "0x3e984d75",
      "from": "0x9e3f8146d3fa4b37033e73bfc95728f5b65b2473",
      "to": "0xc51aaccb820dc42d1b57b729a0abd9700819643d",
      "contractAddress": null
    },
    {
      "type": "0x2",
      "status": "0x1",
      "cumulativeGasUsed": "0x160a7aa",
      "logs": [],
      "logsBloom": "0x00000000000000000000000000000000000000000000000000000000000000000000000000000000000000000000000000000000000000000000000000000000000000000000000000000000000000000000000000000000000000000000000000000000000000000000000000000000000000000000000000000000000000000000000000000000000000000000000000000000000000000000000000000000000000000000000000000000000000000000000000000000000000000000000000000000000000000000000000000000000000000000000000000000000000000000000000000000000000000000000000000000000000000000000000000000",
      "transactionHash": "0xd4db374f22db318593c5ae328e6d8a8b6f76557a8e4253ffa468a720db591b7f",
      "transactionIndex": "0x99",
      "blockHash": "0xe4fb167b2dcc536a1c9ef1617ce07fdaa79dabea3adcbd680e05783207a8f05f",
      "blockNumber": "0xa88e28",
      "gasUsed": "0x84b0",
      "effectiveGasPrice": "0x3e984d75",
      "from": "0x9e3f8146d3fa4b37033e73bfc95728f5b65b2473",
      "to": "0x92a65ae2f3fbde6e917cfaf6a1c69fd23ba102c0",
      "contractAddress": null
    },
    {
      "type": "0x2",
      "status": "0x1",
      "cumulativeGasUsed": "0x1612ca1",
      "logs": [],
      "logsBloom": "0x00000000000000000000000000000000000000000000000000000000000000000000000000000000000000000000000000000000000000000000000000000000000000000000000000000000000000000000000000000000000000000000000000000000000000000000000000000000000000000000000000000000000000000000000000000000000000000000000000000000000000000000000000000000000000000000000000000000000000000000000000000000000000000000000000000000000000000000000000000000000000000000000000000000000000000000000000000000000000000000000000000000000000000000000000000000",
      "transactionHash": "0x200ead04359403994190a77778c8132e465830dfd11809a3968c299493584342",
      "transactionIndex": "0x9a",
      "blockHash": "0xe4fb167b2dcc536a1c9ef1617ce07fdaa79dabea3adcbd680e05783207a8f05f",
      "blockNumber": "0xa88e28",
      "gasUsed": "0x84f7",
      "effectiveGasPrice": "0x3e984d75",
      "from": "0x9e3f8146d3fa4b37033e73bfc95728f5b65b2473",
      "to": "0x8dba9525dd70dbfba528cde818373df24c09a189",
      "contractAddress": null
    },
    {
      "type": "0x2",
      "status": "0x1",
      "cumulativeGasUsed": "0x161b198",
      "logs": [],
      "logsBloom": "0x00000000000000000000000000000000000000000000000000000000000000000000000000000000000000000000000000000000000000000000000000000000000000000000000000000000000000000000000000000000000000000000000000000000000000000000000000000000000000000000000000000000000000000000000000000000000000000000000000000000000000000000000000000000000000000000000000000000000000000000000000000000000000000000000000000000000000000000000000000000000000000000000000000000000000000000000000000000000000000000000000000000000000000000000000000000",
      "transactionHash": "0x6b804ae637e894dc2e5cb9fec5fb47e669a8bc65722c5c3631c383ddd3c1763b",
      "transactionIndex": "0x9b",
      "blockHash": "0xe4fb167b2dcc536a1c9ef1617ce07fdaa79dabea3adcbd680e05783207a8f05f",
      "blockNumber": "0xa88e28",
      "gasUsed": "0x84f7",
      "effectiveGasPrice": "0x3e984d75",
      "from": "0x9e3f8146d3fa4b37033e73bfc95728f5b65b2473",
      "to": "0x8dba9525dd70dbfba528cde818373df24c09a189",
      "contractAddress": null
    },
    {
      "type": "0x2",
      "status": "0x1",
      "cumulativeGasUsed": "0x162365e",
      "logs": [],
      "logsBloom": "0x00000000000000000000000000000000000000000000000000000000000000000000000000000000000000000000000000000000000000000000000000000000000000000000000000000000000000000000000000000000000000000000000000000000000000000000000000000000000000000000000000000000000000000000000000000000000000000000000000000000000000000000000000000000000000000000000000000000000000000000000000000000000000000000000000000000000000000000000000000000000000000000000000000000000000000000000000000000000000000000000000000000000000000000000000000000",
      "transactionHash": "0x9ed39a24ebcded05d60db838a427577056d8ef991fc2abd3d036269826e16920",
      "transactionIndex": "0x9c",
      "blockHash": "0xe4fb167b2dcc536a1c9ef1617ce07fdaa79dabea3adcbd680e05783207a8f05f",
      "blockNumber": "0xa88e28",
      "gasUsed": "0x84c6",
      "effectiveGasPrice": "0x3e984d75",
      "from": "0x9e3f8146d3fa4b37033e73bfc95728f5b65b2473",
      "to": "0x2a6847579906baa18656b43d587c33d7521c893b",
      "contractAddress": null
    },
    {
      "type": "0x2",
      "status": "0x1",
      "cumulativeGasUsed": "0x163024c",
      "logs": [
        {
          "address": "0x2a6847579906baa18656b43d587c33d7521c893b",
          "topics": [
            "0x2de35142b19ed5a07796cf30791959c592018f70b1d2d7c460eef8ffe713692b",
            "0x0000000000000000000000008dba9525dd70dbfba528cde818373df24c09a189"
          ],
          "data": "0x",
          "blockHash": "0xe4fb167b2dcc536a1c9ef1617ce07fdaa79dabea3adcbd680e05783207a8f05f",
          "blockNumber": "0xa88e28",
          "blockTimestamp": "0x6a2c6df8",
          "transactionHash": "0x2aff398f3eaf238ae32847d6b46c2d71074b286312d4d372ef378fd02acd1372",
          "transactionIndex": "0x9d",
          "logIndex": "0x157",
          "removed": false
        }
      ],
      "logsBloom": "0x00000000000000000000000000000000000000000000000008000000000000000000000000000000000000000400000000000000000000000000000000000000000000000000000000000000000000000000000000000000000000000000000000000000000000000000200000000000000000000000000008000000000000000000000000000000000000000000000000000000000000000000000000000000000000000000000000000000000000800000000000000000000000000000800000000000000000000000000000000000000000000000000000002008000000000040000000000000000000000000000000000000000000000000000000000000",
      "transactionHash": "0x2aff398f3eaf238ae32847d6b46c2d71074b286312d4d372ef378fd02acd1372",
      "transactionIndex": "0x9d",
      "blockHash": "0xe4fb167b2dcc536a1c9ef1617ce07fdaa79dabea3adcbd680e05783207a8f05f",
      "blockNumber": "0xa88e28",
      "gasUsed": "0xcbee",
      "effectiveGasPrice": "0x3e984d75",
      "from": "0x9e3f8146d3fa4b37033e73bfc95728f5b65b2473",
      "to": "0x2a6847579906baa18656b43d587c33d7521c893b",
      "contractAddress": null
    },
    {
      "type": "0x2",
      "status": "0x1",
      "cumulativeGasUsed": "0x163d33b",
      "logs": [],
      "logsBloom": "0x00000000000000000000000000000000000000000000000000000000000000000000000000000000000000000000000000000000000000000000000000000000000000000000000000000000000000000000000000000000000000000000000000000000000000000000000000000000000000000000000000000000000000000000000000000000000000000000000000000000000000000000000000000000000000000000000000000000000000000000000000000000000000000000000000000000000000000000000000000000000000000000000000000000000000000000000000000000000000000000000000000000000000000000000000000000",
      "transactionHash": "0x5302fb000a696a138c2035bdb935f36184e777dcb9dc3182a1055767b3e48beb",
      "transactionIndex": "0x9e",
      "blockHash": "0xe4fb167b2dcc536a1c9ef1617ce07fdaa79dabea3adcbd680e05783207a8f05f",
      "blockNumber": "0xa88e28",
      "gasUsed": "0xd0ef",
      "effectiveGasPrice": "0x3e984d75",
      "from": "0x9e3f8146d3fa4b37033e73bfc95728f5b65b2473",
      "to": "0x92a65ae2f3fbde6e917cfaf6a1c69fd23ba102c0",
      "contractAddress": null
    },
    {
      "type": "0x2",
      "status": "0x1",
      "cumulativeGasUsed": "0x164ad2e",
      "logs": [
        {
          "address": "0x92a65ae2f3fbde6e917cfaf6a1c69fd23ba102c0",
          "topics": [
            "0x2f8788117e7eff1d82e926ec794901d17c78024a50270940304540a733656f0d",
            "0x0000000000000000000000000000000000000000000000000000000000000000",
            "0x000000000000000000000000c51aaccb820dc42d1b57b729a0abd9700819643d",
            "0x0000000000000000000000009e3f8146d3fa4b37033e73bfc95728f5b65b2473"
          ],
          "data": "0x",
          "blockHash": "0xe4fb167b2dcc536a1c9ef1617ce07fdaa79dabea3adcbd680e05783207a8f05f",
          "blockNumber": "0xa88e28",
          "blockTimestamp": "0x6a2c6df8",
          "transactionHash": "0x37f8565e8ad2162a77fe4e208eed260b6350043b580187ddca544fd990cf9f00",
          "transactionIndex": "0x9f",
          "logIndex": "0x158",
          "removed": false
        }
      ],
      "logsBloom": "0x00000004000000000000000000000000000000000000000000000000000000000000000000000000000000000000000000000000000000000000000000000000000000000000000000000000000000000000000000000000000000000000000000000000020000000000000000000800000000000000000000000000000000000000000000000000008000000000000000000010000000000000000000000000000000000000000000080000000000000000000000400000001000000020000080000000000003000000000000000000000000000000000100000100000020000000000000000000000000000000000000000000000000000000000000000000",
      "transactionHash": "0x37f8565e8ad2162a77fe4e208eed260b6350043b580187ddca544fd990cf9f00",
      "transactionIndex": "0x9f",
      "blockHash": "0xe4fb167b2dcc536a1c9ef1617ce07fdaa79dabea3adcbd680e05783207a8f05f",
      "blockNumber": "0xa88e28",
      "gasUsed": "0xd9f3",
      "effectiveGasPrice": "0x3e984d75",
      "from": "0x9e3f8146d3fa4b37033e73bfc95728f5b65b2473",
      "to": "0x92a65ae2f3fbde6e917cfaf6a1c69fd23ba102c0",
      "contractAddress": null
    },
    {
      "type": "0x2",
      "status": "0x1",
      "cumulativeGasUsed": "0x1658737",
      "logs": [
        {
          "address": "0x2a6847579906baa18656b43d587c33d7521c893b",
          "topics": [
            "0x2f8788117e7eff1d82e926ec794901d17c78024a50270940304540a733656f0d",
            "0x0000000000000000000000000000000000000000000000000000000000000000",
            "0x000000000000000000000000c51aaccb820dc42d1b57b729a0abd9700819643d",
            "0x0000000000000000000000009e3f8146d3fa4b37033e73bfc95728f5b65b2473"
          ],
          "data": "0x",
          "blockHash": "0xe4fb167b2dcc536a1c9ef1617ce07fdaa79dabea3adcbd680e05783207a8f05f",
          "blockNumber": "0xa88e28",
          "blockTimestamp": "0x6a2c6df8",
          "transactionHash": "0x918a02fa060f5fa32070bf12c3ddc4e327c77d517fcd6c9ec8493b4aa3459851",
          "transactionIndex": "0xa0",
          "logIndex": "0x159",
          "removed": false
        }
      ],
      "logsBloom": "0x00000004000000000000000000000000000000000000000008000000000000000000000000000000000000000000000000000000000000000000000000000000000000000000000000000000000000000000000000000000000000000000000000000000020000000000200000000800000000000000000000000000000000000000000000000000008000000000000000000010000000000000000000000000000000000000000000080000000000000000000000400000001000000000000080000000000000000000000000000000000000000000000100000108000020000000000000000000000000000000000000000000000000000000000000000000",
      "transactionHash": "0x918a02fa060f5fa32070bf12c3ddc4e327c77d517fcd6c9ec8493b4aa3459851",
      "transactionIndex": "0xa0",
      "blockHash": "0xe4fb167b2dcc536a1c9ef1617ce07fdaa79dabea3adcbd680e05783207a8f05f",
      "blockNumber": "0xa88e28",
      "gasUsed": "0xda09",
      "effectiveGasPrice": "0x3e984d75",
      "from": "0x9e3f8146d3fa4b37033e73bfc95728f5b65b2473",
      "to": "0x2a6847579906baa18656b43d587c33d7521c893b",
      "contractAddress": null
    },
    {
      "type": "0x2",
      "status": "0x1",
      "cumulativeGasUsed": "0x166618e",
      "logs": [
        {
          "address": "0x8dba9525dd70dbfba528cde818373df24c09a189",
          "topics": [
            "0x2f8788117e7eff1d82e926ec794901d17c78024a50270940304540a733656f0d",
            "0x0000000000000000000000000000000000000000000000000000000000000000",
            "0x000000000000000000000000c51aaccb820dc42d1b57b729a0abd9700819643d",
            "0x0000000000000000000000009e3f8146d3fa4b37033e73bfc95728f5b65b2473"
          ],
          "data": "0x",
          "blockHash": "0xe4fb167b2dcc536a1c9ef1617ce07fdaa79dabea3adcbd680e05783207a8f05f",
          "blockNumber": "0xa88e28",
          "blockTimestamp": "0x6a2c6df8",
          "transactionHash": "0xf047debf70af71fb0c4a0e9300594b0398f7c1886bc0099fa2b7679b161176e9",
          "transactionIndex": "0xa1",
          "logIndex": "0x15a",
          "removed": false
        }
      ],
      "logsBloom": "0x00000004000000000000000000000000000000000000000000008000000000000000000000000000000000000000000000000000000000000000000000000000000000000000000000000000000000000000000000000000000000000000000000000000020000000000000000000800000000000000000000000000000000000000000000000004008000000000000000000010000000000000000000000000000000000000000000080000000000000000000000400000001000000000000080000000000000000000000000000000000000000000080100000100000020000000000000000000000000000000000000000000000000000000000000000000",
      "transactionHash": "0xf047debf70af71fb0c4a0e9300594b0398f7c1886bc0099fa2b7679b161176e9",
      "transactionIndex": "0xa1",
      "blockHash": "0xe4fb167b2dcc536a1c9ef1617ce07fdaa79dabea3adcbd680e05783207a8f05f",
      "blockNumber": "0xa88e28",
      "gasUsed": "0xda57",
      "effectiveGasPrice": "0x3e984d75",
      "from": "0x9e3f8146d3fa4b37033e73bfc95728f5b65b2473",
      "to": "0x8dba9525dd70dbfba528cde818373df24c09a189",
      "contractAddress": null
    },
    {
      "type": "0x2",
      "status": "0x1",
      "cumulativeGasUsed": "0x166d47d",
      "logs": [
        {
          "address": "0x92a65ae2f3fbde6e917cfaf6a1c69fd23ba102c0",
          "topics": [
            "0xf6391f5c32d9c69d2a47ea670b442974b53935d1edc7fd64eb21e047a839171b",
            "0x0000000000000000000000000000000000000000000000000000000000000000",
            "0x0000000000000000000000009e3f8146d3fa4b37033e73bfc95728f5b65b2473",
            "0x0000000000000000000000009e3f8146d3fa4b37033e73bfc95728f5b65b2473"
          ],
          "data": "0x",
          "blockHash": "0xe4fb167b2dcc536a1c9ef1617ce07fdaa79dabea3adcbd680e05783207a8f05f",
          "blockNumber": "0xa88e28",
          "blockTimestamp": "0x6a2c6df8",
          "transactionHash": "0x57d42093d776ec4771af718b6fb9403cea2eb8430948295c83ac0df8c3362d6a",
          "transactionIndex": "0xa2",
          "logIndex": "0x15b",
          "removed": false
        }
      ],
      "logsBloom": "0x00000000000000000000000000000000000000000000000000000000000000000000000000000000000000000000000000200000000000000000000000000000000000000000000000000000000000000000000000000000000000000000000040000000020000000000000000000800000000000000000000000000000000000000000040000000008000000000000000000000000000000000000000000000000000000000000000000000000000000000000000000000000000000020000080000000000003000000000000000000000000000000000000000100000020000000000000000000000000000000000000000000000000000000000000000000",
      "transactionHash": "0x57d42093d776ec4771af718b6fb9403cea2eb8430948295c83ac0df8c3362d6a",
      "transactionIndex": "0xa2",
      "blockHash": "0xe4fb167b2dcc536a1c9ef1617ce07fdaa79dabea3adcbd680e05783207a8f05f",
      "blockNumber": "0xa88e28",
      "gasUsed": "0x72ef",
      "effectiveGasPrice": "0x3e984d75",
      "from": "0x9e3f8146d3fa4b37033e73bfc95728f5b65b2473",
      "to": "0x92a65ae2f3fbde6e917cfaf6a1c69fd23ba102c0",
      "contractAddress": null
    },
    {
      "type": "0x2",
      "status": "0x1",
      "cumulativeGasUsed": "0x1674782",
      "logs": [
        {
          "address": "0x2a6847579906baa18656b43d587c33d7521c893b",
          "topics": [
            "0xf6391f5c32d9c69d2a47ea670b442974b53935d1edc7fd64eb21e047a839171b",
            "0x0000000000000000000000000000000000000000000000000000000000000000",
            "0x0000000000000000000000009e3f8146d3fa4b37033e73bfc95728f5b65b2473",
            "0x0000000000000000000000009e3f8146d3fa4b37033e73bfc95728f5b65b2473"
          ],
          "data": "0x",
          "blockHash": "0xe4fb167b2dcc536a1c9ef1617ce07fdaa79dabea3adcbd680e05783207a8f05f",
          "blockNumber": "0xa88e28",
          "blockTimestamp": "0x6a2c6df8",
          "transactionHash": "0x29670c1aa78a66092c563c9411a8d9547426164752670b57a62c956c282d9e6e",
          "transactionIndex": "0xa3",
          "logIndex": "0x15c",
          "removed": false
        }
      ],
      "logsBloom": "0x00000000000000000000000000000000000000000000000008000000000000000000000000000000000000000000000000200000000000000000000000000000000000000000000000000000000000000000000000000000000000000000000040000000020000000000200000000800000000000000000000000000000000000000000040000000008000000000000000000000000000000000000000000000000000000000000000000000000000000000000000000000000000000000000080000000000000000000000000000000000000000000000000000108000020000000000000000000000000000000000000000000000000000000000000000000",
      "transactionHash": "0x29670c1aa78a66092c563c9411a8d9547426164752670b57a62c956c282d9e6e",
      "transactionIndex": "0xa3",
      "blockHash": "0xe4fb167b2dcc536a1c9ef1617ce07fdaa79dabea3adcbd680e05783207a8f05f",
      "blockNumber": "0xa88e28",
      "gasUsed": "0x7305",
      "effectiveGasPrice": "0x3e984d75",
      "from": "0x9e3f8146d3fa4b37033e73bfc95728f5b65b2473",
      "to": "0x2a6847579906baa18656b43d587c33d7521c893b",
      "contractAddress": null
    },
    {
      "type": "0x2",
      "status": "0x1",
      "cumulativeGasUsed": "0x167bafa",
      "logs": [
        {
          "address": "0x8dba9525dd70dbfba528cde818373df24c09a189",
          "topics": [
            "0xf6391f5c32d9c69d2a47ea670b442974b53935d1edc7fd64eb21e047a839171b",
            "0x0000000000000000000000000000000000000000000000000000000000000000",
            "0x0000000000000000000000009e3f8146d3fa4b37033e73bfc95728f5b65b2473",
            "0x0000000000000000000000009e3f8146d3fa4b37033e73bfc95728f5b65b2473"
          ],
          "data": "0x",
          "blockHash": "0xe4fb167b2dcc536a1c9ef1617ce07fdaa79dabea3adcbd680e05783207a8f05f",
          "blockNumber": "0xa88e28",
          "blockTimestamp": "0x6a2c6df8",
          "transactionHash": "0xff8f18622e0b9f29be0719eb072c25b2089501be078832a0621332db63ee576a",
          "transactionIndex": "0xa4",
          "logIndex": "0x15d",
          "removed": false
        }
      ],
      "logsBloom": "0x00000000000000000000000000000000000000000000000000008000000000000000000000000000000000000000000000200000000000000000000000000000000000000000000000000000000000000000000000000000000000000000000040000000020000000000000000000800000000000000000000000000000000000000000040000004008000000000000000000000000000000000000000000000000000000000000000000000000000000000000000000000000000000000000080000000000000000000000000000000000000000000080000000100000020000000000000000000000000000000000000000000000000000000000000000000",
      "transactionHash": "0xff8f18622e0b9f29be0719eb072c25b2089501be078832a0621332db63ee576a",
      "transactionIndex": "0xa4",
      "blockHash": "0xe4fb167b2dcc536a1c9ef1617ce07fdaa79dabea3adcbd680e05783207a8f05f",
      "blockNumber": "0xa88e28",
      "gasUsed": "0x7378",
      "effectiveGasPrice": "0x3e984d75",
      "from": "0x9e3f8146d3fa4b37033e73bfc95728f5b65b2473",
      "to": "0x8dba9525dd70dbfba528cde818373df24c09a189",
      "contractAddress": null
    },
    {
      "type": "0x2",
      "status": "0x1",
      "cumulativeGasUsed": "0x1681b19",
      "logs": [
        {
          "address": "0xc51aaccb820dc42d1b57b729a0abd9700819643d",
          "topics": [
            "0xf6391f5c32d9c69d2a47ea670b442974b53935d1edc7fd64eb21e047a839171b",
            "0x0000000000000000000000000000000000000000000000000000000000000000",
            "0x0000000000000000000000009e3f8146d3fa4b37033e73bfc95728f5b65b2473",
            "0x0000000000000000000000009e3f8146d3fa4b37033e73bfc95728f5b65b2473"
          ],
          "data": "0x",
          "blockHash": "0xe4fb167b2dcc536a1c9ef1617ce07fdaa79dabea3adcbd680e05783207a8f05f",
          "blockNumber": "0xa88e28",
          "blockTimestamp": "0x6a2c6df8",
          "transactionHash": "0x37d746f4b17fdbc3b1994d022f419c51a95e37608c1a06c49f70eef25d17955f",
          "transactionIndex": "0xa5",
          "logIndex": "0x15e",
          "removed": false
        }
      ],
      "logsBloom": "0x00000000000000000000000000000000000000000000000000000000000000000000000000000000000000000000000800200000000000000000000000000000000000000000000000000000000000000000000000000000000000000000000040000000020000000000000000000800000000000000000000000000000000000000000040000000008000000000000000000000000000000000000000000000000000000000000000000000000000000000000000000000000000000000000080000200000000000000000000000000000000000000000000000100000020000000000000000000000000000000000000000010000000000000000000000000",
      "transactionHash": "0x37d746f4b17fdbc3b1994d022f419c51a95e37608c1a06c49f70eef25d17955f",
      "transactionIndex": "0xa5",
      "blockHash": "0xe4fb167b2dcc536a1c9ef1617ce07fdaa79dabea3adcbd680e05783207a8f05f",
      "blockNumber": "0xa88e28",
      "gasUsed": "0x601f",
      "effectiveGasPrice": "0x3e984d75",
      "from": "0x9e3f8146d3fa4b37033e73bfc95728f5b65b2473",
      "to": "0xc51aaccb820dc42d1b57b729a0abd9700819643d",
      "contractAddress": null
    },
    {
      "type": "0x2",
      "status": "0x1",
      "cumulativeGasUsed": "0x1687cb8",
      "logs": [
        {
          "address": "0xc51aaccb820dc42d1b57b729a0abd9700819643d",
          "topics": [
            "0xf6391f5c32d9c69d2a47ea670b442974b53935d1edc7fd64eb21e047a839171b",
            "0xb09aa5aeb3702cfd50b6b62bc4532604938f21248a27a1d5ca736082b6819cc1",
            "0x0000000000000000000000009e3f8146d3fa4b37033e73bfc95728f5b65b2473",
            "0x0000000000000000000000009e3f8146d3fa4b37033e73bfc95728f5b65b2473"
          ],
          "data": "0x",
          "blockHash": "0xe4fb167b2dcc536a1c9ef1617ce07fdaa79dabea3adcbd680e05783207a8f05f",
          "blockNumber": "0xa88e28",
          "blockTimestamp": "0x6a2c6df8",
          "transactionHash": "0x8d1b1e188afd29d5d23934101fa94459652d4b7fe55cd8f4e29d975395720d38",
          "transactionIndex": "0xa6",
          "logIndex": "0x15f",
          "removed": false
        }
      ],
      "logsBloom": "0x00000000000000000000000000000000020000000000000000000000000000000000000000000000000000000000000800200000000000000000000000200000000000000000000000000000000000000000000000000000000000000000000040000000000000000000000000000000000000000000000000000000000000000000000040000000008000000000000000000000000000000000000000000000000000000020000000000000000000000000000000000000000000000000000080000200000000000000000000000000000000000000000000000100000000000000000000000000000000000000000000000010000000000000000000000000",
      "transactionHash": "0x8d1b1e188afd29d5d23934101fa94459652d4b7fe55cd8f4e29d975395720d38",
      "transactionIndex": "0xa6",
      "blockHash": "0xe4fb167b2dcc536a1c9ef1617ce07fdaa79dabea3adcbd680e05783207a8f05f",
      "blockNumber": "0xa88e28",
      "gasUsed": "0x619f",
      "effectiveGasPrice": "0x3e984d75",
      "from": "0x9e3f8146d3fa4b37033e73bfc95728f5b65b2473",
      "to": "0xc51aaccb820dc42d1b57b729a0abd9700819643d",
      "contractAddress": null
    },
    {
      "type": "0x2",
      "status": "0x1",
      "cumulativeGasUsed": "0x168de57",
      "logs": [
        {
          "address": "0xc51aaccb820dc42d1b57b729a0abd9700819643d",
          "topics": [
            "0xf6391f5c32d9c69d2a47ea670b442974b53935d1edc7fd64eb21e047a839171b",
            "0xd8aa0f3194971a2a116679f7c2090f6939c8d4e01a2a8d7e41d55e5351469e63",
            "0x0000000000000000000000009e3f8146d3fa4b37033e73bfc95728f5b65b2473",
            "0x0000000000000000000000009e3f8146d3fa4b37033e73bfc95728f5b65b2473"
          ],
          "data": "0x",
          "blockHash": "0xe4fb167b2dcc536a1c9ef1617ce07fdaa79dabea3adcbd680e05783207a8f05f",
          "blockNumber": "0xa88e28",
          "blockTimestamp": "0x6a2c6df8",
          "transactionHash": "0x1802eb561c9670f3c1c8d38916d733d0cacf66bd9330096de53fe260e1c5049d",
          "transactionIndex": "0xa7",
          "logIndex": "0x160",
          "removed": false
        }
      ],
      "logsBloom": "0x00000000000000000000000000000000000000000000000000000000000000000000000000000000000000000001000800200000000000000200000010000000000000000000000000000000000000000000000000000000000000000000000040000000000000000000000000000000000000000000000000000000000000000000000040000000008000000000000000000000000000000000000000000000000000000000000000000000000000000000000000000000000000000000000080000200000000000000000000000000000000000000000000000100000000000000000000000000000000000000000000000010000000000000000000000000",
      "transactionHash": "0x1802eb561c9670f3c1c8d38916d733d0cacf66bd9330096de53fe260e1c5049d",
      "transactionIndex": "0xa7",
      "blockHash": "0xe4fb167b2dcc536a1c9ef1617ce07fdaa79dabea3adcbd680e05783207a8f05f",
      "blockNumber": "0xa88e28",
      "gasUsed": "0x619f",
      "effectiveGasPrice": "0x3e984d75",
      "from": "0x9e3f8146d3fa4b37033e73bfc95728f5b65b2473",
      "to": "0xc51aaccb820dc42d1b57b729a0abd9700819643d",
      "contractAddress": null
    },
    {
      "type": "0x2",
      "status": "0x1",
      "cumulativeGasUsed": "0x1693ff6",
      "logs": [
        {
          "address": "0xc51aaccb820dc42d1b57b729a0abd9700819643d",
          "topics": [
            "0xf6391f5c32d9c69d2a47ea670b442974b53935d1edc7fd64eb21e047a839171b",
            "0xfd643c72710c63c0180259aba6b2d05451e3591a24e58b62239378085726f783",
            "0x0000000000000000000000009e3f8146d3fa4b37033e73bfc95728f5b65b2473",
            "0x0000000000000000000000009e3f8146d3fa4b37033e73bfc95728f5b65b2473"
          ],
          "data": "0x",
          "blockHash": "0xe4fb167b2dcc536a1c9ef1617ce07fdaa79dabea3adcbd680e05783207a8f05f",
          "blockNumber": "0xa88e28",
          "blockTimestamp": "0x6a2c6df8",
          "transactionHash": "0x415d2c0b9030a6b048e56b0fb82f383bd8cd650cddcf8cb9f72ba371a450ed15",
          "transactionIndex": "0xa8",
          "logIndex": "0x161",
          "removed": false
        }
      ],
      "logsBloom": "0x00000000000000000000000000000000000000000000000000000000000000000000000000000000000000000000000800200000000000000000000000000000000000000000000000000010000000000000000000000000000000000000000040000000000000000000000000000000000000000000000000000000000000000000000040000000008000000000000000000000000000000000000000000000000000000000000000000000000000000000000000000000000000000000000080000200000000000000000000000000000000000000000000000100200000000000000000000000000000000000000000000010000000000000000000000000",
      "transactionHash": "0x415d2c0b9030a6b048e56b0fb82f383bd8cd650cddcf8cb9f72ba371a450ed15",
      "transactionIndex": "0xa8",
      "blockHash": "0xe4fb167b2dcc536a1c9ef1617ce07fdaa79dabea3adcbd680e05783207a8f05f",
      "blockNumber": "0xa88e28",
      "gasUsed": "0x619f",
      "effectiveGasPrice": "0x3e984d75",
      "from": "0x9e3f8146d3fa4b37033e73bfc95728f5b65b2473",
      "to": "0xc51aaccb820dc42d1b57b729a0abd9700819643d",
      "contractAddress": null
    }
  ],
  "libraries": [],
  "pending": [],
  "returns": {},
  "timestamp": 1781296778677,
  "chain": 11155111,
  "commit": "7a8fe3a"
}